:100000000C9460050C94A4050C94A4050C94A40510
:100010000C94A4050C94A4050C94A4050C94A405BC
:100020000C94A4050C94A4050C941D0C0C94A4052C
:100030000C94331D0C94A4050C94A4050C94A405F5
:100040000C94A4050C94A4050C94A4050C94A4058C
:100050000C94A4050C94711D0C94A4050C94A40597
:100060000C94A4050C94A4050C94A4050C94A4056C
:100070000C94A4050C94A4050C94A4050C94A4055C
:100080000C94A4050C94A4050C94A4050C94A4054C
:100090000C94A4050C94A4050C94A4050C94A4053C
:1000A0000C94A4050C94A4050C94A405C306C506E1
:1000B000C706C906CB06CF06D306D706DB06DD0684
:1000C000E006E306E806EA06F006ED06160E380E30
:1000D000240F380E240F7A0E9E0E240FF30E060FF7
:1000E0001212121240124012951214151415141502
:1000F000D1121415C813C8138414981414150215BA
:10010000F1A100D201D404D402D408D410D420D454
:1001100040D4F1A2293A3B3C3D3E3F40414243445A
:10012000454B4E48351E1F20212223242526272DEE
:100130002E2A004C2B141A0815171C180C12132FFA
:100140003031004AE0041607090A0B0D0E0F333454
:100150000028004BE11D1B06190511103637380029
:10016000E552004EE2E32000002C0000C900C00070
:100170005051004FA6B3B4B5B1A8AAA9AFADAEAC6B
:10018000AB010101C1C2C3C4C5C6C7C80101010199
:10019000010100010147010101010101010101010A
:1001A0000101000101010101010101010101010140
:1001B000000100AE01010101010101010101010085
:1001C00001A900AD010101000001000001000100D2
:1001D000ACAA00ABA6B3B4B5B1A8AAA9AFADAEACFA
:1001E000AB010101C1C2C3C4C5C6C7C80101010139
:1001F00001010001014701010101010101010101AA
:100200000101000101F6F5F4010101010101010103
:10021000000100AE01010101010101010101010024
:1002200001A900AD0101010000A8000001000100CA
:10023000ACAA00AB253032583A20253033326C62FC
:100240000A000A722F6320303132333435363738A2
:10025000394142434445460A000D0A0025303258D0
:1002600000626F756E6365213A20005B735D004B21
:100270006579626F6172642073746172742E0A0012
:1002800055534220636F6E666967757265642E0A06
:10029000005B575D005B535D005B525D005B445D3E
:1002A000005B435D0010034F006300740061006752
:1002B000006F006E0000000A034400750063006BCD
:1002C0000000000403090409025B00030100A032DE
:1002D00009040000010301010009211101000122AC
:1002E0003F000705810308000A090401000103001B
:1002F00000000921110100012236000705820308D0
:10030000000A090402000203000000092111010093
:1003100001222000070583032000010705030320B5
:1003200000011201100100000008EDFE5060040100
:10033000010200010631FF0974A1010975150025AC
:10034000FF9520750881020976150025FF95207517
:10035000089102C005010980A1018502160100264D
:10036000B7001A01002AB700751095018100C00579
:100370000C0901A1018503160100269C021A010047
:100380002A9C02751095018100C005010906A10192
:10039000050719E029E71500250195087501810277
:1003A0009501750881010508190129059505750153
:1003B00091029501750391010507190029FF1500A8
:1003C00025FF950675088100C00A002530325820A7
:1003D000006B6579626F6172645F7265706F7274D1
:1003E0003A20000A0025303258006B6579626F614F
:1003F00072645F7365745F6C65643A2000646F6E4D
:10040000652E0A00626F6F676D61676963207363B1
:10041000616E3A202E2E2E20003F000A517569741D
:1004200020436F6E736F6C65204D6F64650A0043E7
:100430003E20000A0025750020746F2000257500FD
:100440007377697463685F64656661756C745F6C0B
:10045000617965723A20004553432F713A097175ED
:1004600069740A000A0A2D2D2D2D2D20436F6E73FD
:100470006F6C652048656C70202D2D2D2D2D0A0088
:10048000506175733A096A756D7020746F20626FE0
:100490006F746C6F616465720A00436170733A092E
:1004A0004C6F636B204B6579626F6172642843689F
:1004B000696C642050726F6F66290A005053637232
:1004C0003A09706F77657220646F776E2F72656D71
:1004D0006F74652077616B652D75700A00342F4647
:1004E000343A0973776974636820746F204C6179BA
:1004F000657234200A00332F46333A0973776974E2
:10050000636820746F204C6179657233200A003271
:100510002F46323A0973776974636820746F204CF0
:100520006179657232200A00312F46313A097377BA
:100530006974636820746F204C6179657231200A98
:1005400000302F4631303A0973776974636820743C
:100550006F204C6179657230200A00653A0970722B
:10056000696E7420656570726F6D20636F6E666969
:10057000670A00733A097072696E7420737461744B
:1005800075730A00743A097072696E742074696D2B
:10059000657220636F756E740A00763A097072692D
:1005A0006E74206465766963652076657273696F21
:1005B0006E202620696E666F0A006D3A09746F67B7
:1005C000676C65206D6F7573652064656275670A79
:1005D000006B3A09746F67676C65206B6579626FB1
:1005E0006172642064656275670A00783A09746F05
:1005F00067676C65206D61747269782064656275E7
:10060000670A00643A09746F67676C652064656205
:10061000756720656E61626C650A00633A09656EF4
:1006200074657220636F6E736F6C65206D6F6465A7
:100630000A000A0A2D2D2D2D2D20436F6D6D616E40
:10064000642048656C70202D2D2D2D2D0A000A0088
:100650002575002E6C6576656C3A20000A002575BC
:10066000002E656E61626C653A20000A002530320A
:1006700058006261636B6C696768745F636F6E6674
:1006800069672E7261773A20000A002575002E6E88
:100690006B726F3A20000A002575002E7377617027
:1006A0005F6261636B736C6173685F6261636B73DC
:1006B000706163653A20000A002575002E7377612A
:1006C000705F67726176655F6573633A20000A0048
:1006D0002575002E6E6F5F6775693A20000A002548
:1006E00075002E737761705F72616C745F726775ED
:1006F000693A20000A002575002E737761705F6CDF
:10070000616C745F6C6775693A20000A002575009A
:100710002E636170736C6F636B5F746F5F636F6E7A
:1007200074726F6C3A20000A002575002E73776191
:10073000705F636F6E74726F6C5F636170736C6F08
:10074000636B3A20000A0025303258006B65796DE2
:1007500061705F636F6E6669672E7261773A200021
:100760000A002575002E6D6F7573653A20000A002A
:100770002575002E6B6579626F6172643A20000AFC
:10078000002575002E6D61747269783A20000A00A8
:100790002575002E656E61626C653A20000A0025A1
:1007A0003032580064656275675F636F6E666967B3
:1007B0002E7261773A20000A002575006465666133
:1007C000756C745F6C617965723A20003F006B65EF
:1007D00079626F6172645F69646C653A2025580ABA
:1007E000006B6579626F6172645F70726F746F63C2
:1007F0006F6C3A2025580A00686F73745F6B6579D7
:10080000626F6172645F6C65647328293A202558B1
:100810000A000A0A2D2D2D2D2D2053746174757335
:10082000202D2D2D2D2D0A0074696D65725F636F6B
:10083000756E743A202530346C580A004743433AA9
:1008400020342E382E31204156522D4C4942433A05
:1008500020312E382E3073766E204156525F415231
:1008600043483A20617672350A004F5054494F4E42
:10087000533A204C55464120424F4F544D41474931
:10088000432045585452414B455920434F4E534FF6
:100890004C4520434F4D4D414E4420343039360AAB
:1008A000004255494C443A20323431616636362D87
:1008B0006469727479202830363A34313A353420FC
:1008C0004D61722032392032303135290A005649C3
:1008D000443A20307846454544284475636B2920C6
:1008E0005049443A20307836303530284F637461AF
:1008F000676F6E29205645523A20307830313034B7
:100900000A00444553433A20742E6D2E6B2E206B03
:100910006579626F617264206669726D7761726574
:1009200020666F72204F637461676F6E0A000A0A57
:100930002D2D2D2D2D2056657273696F6E202D2D56
:100940002D2D2D0A000A44454255473A206D6F75FA
:1009500073652064697361626C65642E0A000A44E1
:10096000454255473A206D6F75736520656E61622B
:100970006C65642E0A000A44454255473A206B656F
:1009800079626F6172642064697361626C65642E60
:100990000A000A44454255473A206B6579626F6107
:1009A000726420656E61626C65642E0A000A4445BB
:1009B0004255473A206D61747269782064697361A9
:1009C000626C65642E0A000A44454255473A206D20
:1009D000617472697820656E61626C65642E0A00CC
:1009E0000A44454255473A20656E61626C65642E43
:1009F0000A000A44454255473A2064697361626CB3
:100A000065642E0A006E6F7420737570706F727457
:100A100065642E0A000A0A4A756D7020746F2062A0
:100A20006F6F746C6F616465722E2E2E2000433ED2
:100A300020000A456E74657220436F6E736F6C659B
:100A4000204D6F64650A00556E6C6F636B65642E94
:100A50000A004C6F636B65642E0A006565636F6EF8
:100A60006669673A0A006261636B6C696768742043
:100A7000737465703A2025750A006261636B6C6956
:100A800067687420746F67676C653A2025750A0083
:100A90006261636B6C696768742064656372656129
:100AA00073653A2025750A006261636B6C6967683B
:100AB0007420696E6372656173653A2025750A005A
:100AC00011241FBECFEFDAE0DEBFCDBF04B603FEB8
:100AD00024C08091B9019091BA01A091BB01B0915D
:100AE000BC018730904BA740B04BB9F41092B901CC
:100AF0001092BA011092BB011092BC0114BE84B7CF
:100B0000877F84BF88E10FB6F894809360001092CD
:100B100060000FBEE0E0F8E3099511E0A0E0B1E06D
:100B2000ECE9F8E402C005900D92AE31B107D9F7B7
:100B300021E0AEE1B1E001C01D92A93BB207E1F7AF
:100B40000E94610A0C944C240C940000FF93EF93D4
:100B5000E091A101F091A201309709F00995EF9180
:100B6000FF910895FC018591803011F0EFDFFBCFFC
:100B70000895FF27E0E230E247FF0CC0419597FF60
:100B800009C0EDE26095709580959095611D711D8D
:100B9000811D911D27FF02C0219530E350E2AA2755
:100BA000660F771F881F991FAA1FA41710F0A41B98
:100BB00063955A95A9F7AA3008F0A95FA05DAF9395
:100BC000F395611571058105910541F7ED3211F439
:100BD000EF93F395F21718F43F93F395FBCF8F91B2
:100BE000B5DFFA95E1F70895E991F99185918030A3
:100BF00021F0853219F0AADFF9CF089520E0E894BA
:100C000055915532C1F3503311F4689455915A33CC
:100C100048F4505390F3220F022E220F220F200D82
:100C2000250FF4CF0EF4219589919991533619F33C
:100C3000533729F1533559F1BC0188279927E89496
:100C40005C3621F48991999168945591543639F420
:100C500046EF7EF077FF0DC08FEF9FEF0AC055374C
:100C60004AE039F0583540E121F0523642E009F0CF
:100C70000895FF93EF937DDFEF91FF91B7CFFF933F
:100C8000EF93FC0181918030B9F360DFFBCFFF93DC
:100C9000EF9368DFF1CFDF93CF93CDB7DEB7259623
:100CA000A3DFCF91DF91089508950895E72FF0E035
:100CB00096E0899FE00DF11D112484E0EE0FFF1FE7
:100CC0008A95E1F7E60FF11DEC5EFE4F84910895E1
:100CD000E82FF0E0EE0FFF1FE058F040859194916F
:100CE0000895269A2E9887B1806C87B988B18F7342
:100CF00088B980B3836080BB81B38C7F81BB08954A
:100D00000E94F6070E9471068AB1807D8AB98BB174
:100D1000807D8BB927982F986A98729AEAE2F1E061
:100D2000AEE1B1E0119211921D921D9281E0E63385
:100D3000F807C1F708954F925F926F927F928F925A
:100D40009F92AF92BF92CF92DF92EF92FF920F935A
:100D50001F93CF93DF93C0E0D0E055245394CC246D
:100D6000C394D12C3CE5632E32E0732E45E0442E33
:100D70002C2F8C2F90E08031910590F5FC01EA5AE0
:100D8000FF4F0C941524469A2BC0469A17C0469ADA
:100D900018C0469A19C088B1806C88B921C088B142
:100DA000806C88B90BC088B1806C88B90AC088B1E2
:100DB000806C88B909C02E9A13C02E9A889A10C0E8
:100DC0002E9A899A0DC02E9A81B3836081BB08C088
:100DD0002E9A05C02E9A889A02C02E9A899A479A0E
:100DE00080E18A95F1F72E3031F48CB182FB8827AF
:100DF00080F9852519C039B189B129B199B18270BD
:100E00003170832B2470822B9870892B4D9B02C0EC
:100E100090E101C090E0892B93B1991F9927991F08
:100E20009295990F907E892B56010C2E02C0AA0C28
:100E3000BB1C0A94E2F79EE1E92E91E0F92E00E056
:100E400010E0882E912CF70120813181C9018A217F
:100E50009B2151E0892B09F450E0C601002E02C00D
:100E6000880F991F0A94E2F78821992141E0892B84
:100E700009F440E0541759F12A253B25F701318345
:100E8000208380910001882301F180919F0180FFE0
:100E900004C081E692E00E94B20580919F0180FF2C
:100EA0000CC0809100011F928F937F926F920E94DD
:100EB0004B060F900F900F900F9080919F0180FF35
:100EC00004C089E592E00E94B205409200010F5FE4
:100ED0001F4FF2E0EF0EF11C0630110509F0B3CF01
:100EE0000E9471062196C031D10509F041CF809151
:100EF00000018823C1F0815080930001882339F0DC
:100F00008FE99FE00197F1F700C000000CC0AAE252
:100F1000B1E0EEE1F1E0819191918D939D9391E0AB
:100F2000EA32F907C1F781E0DF91CF911F910F916C
:100F3000FF90EF90DF90CF90BF90AF909F908F90F9
:100F40007F906F905F904F900895E82FF0E0EE0F44
:100F5000FF1FE65DFE4F808191810895EF92FF9221
:100F60000F931F93CF93DF9382E492E00E94B20528
:100F70007AE2E72E71E0F72EC0E0D0E004E312E061
:100F8000F701619171917F0180E090E00E94D21C95
:100F90009F938F937F936F93DF93CF931F930F93C1
:100FA0000E944B062196EDB7FEB738960FB6F8941F
:100FB000FEBF0FBEEDBFC630D10511F7DF91CF9157
:100FC0001F910F91FF90EF900895CF93C82F81FF4D
:100FD00003C00E944E0802C00E945008C2FF03C016
:100FE000CF910C945208CF910C94540884B18F6126
:100FF00084B98AB1806D8AB96E9A0895299A089544
:10100000299808952A9A08952A9808952B9A089560
:101010002B980895769A0895769808955E9A089583
:101020005E9808955F9A08955F9808955C9A089570
:101030005C980895CF93C82F80FF03C00E94FE07DD
:1010400002C00E940008C1FF03C00E94020802C043
:101050000E940408C2FF03C00E94060802C00E944A
:101060000808C3FF03C00E940A0802C00E940C08BF
:10107000C4FF03C00E940E0802C00E941008C5FFF2
:1010800003C00E94120802C00E941408C6FF03C0D9
:10109000CF910C941608CF910C94180828980895B5
:1010A000289A08952C9808952C9A089580914001CB
:1010B000089508959091AF01943009F04DC090913A
:1010C000E9009F702091EC0020FF02C020E801C0E1
:1010D00020E0292B93E09093E9009091EB0090FFA2
:1010E00038C09091EE0097FF34C09091370199235A
:1010F00021F09091E80095FF2CC01092370196E006
:101100003091E80035FD15C03091AF01343009F55C
:101110003091EB0035FD1DC0915021F481E08093AA
:10112000370117C0EFE9FFE03197F1F700C0000089
:10113000E7CF8093F1008091E80085FD05C08091A4
:10114000E8008E778093E8002F702093E90080E01C
:1011500008952F702093E9008FEF0895CF93DF93C8
:1011600000D01F92CDB7DEB72091AF01243021F51A
:1011700023E029839B838A8382E08093E9008FEFB9
:101180009091E800815095FD06C095ED9A95F1F794
:1011900000008111F5CF8091E80085FF0DC040E08F
:1011A00050E063E070E0CE0101960E94E80C80916F
:1011B000E8008E778093E8000F900F900F90DF91FA
:1011C000CF910895CF93DF9300D01F92CDB7DEB7B4
:1011D0002091AF01243019F522E029839B838A8373
:1011E0002093E9008FEF9091E800815095FD06C0B3
:1011F00095ED9A95F1F700008111F5CF8091E80007
:1012000085FF0DC040E050E063E070E0CE01019644
:101210000E94E80C8091E8008E778093E8000F90A0
:101220000F900F90DF91CF910895CF93DF93EC0152
:101230008091AF01843039F581E08093E9008FEF30
:101240009091E800815095FD06C095ED9A95F1F7D3
:1012500000008111F5CF8091E80085FF14C040E0C7
:1012600050E068E070E0CE010E94E80C8091E80058
:101270008E778093E80088E0FE01A8E3B1E001905A
:101280000D928A95E1F7DF91CF91089581EA92E07E
:101290000E94B2058091AE01811109C00E94A70B86
:1012A0000E94040C8091E20084608093E200089523
:1012B0008DE992E00E94B2051092AE01089589E98D
:1012C00092E00C94B20585E992E00E94B2050C947C
:1012D000550681E992E00E94B2050C942F1D809181
:1012E000AF01843049F58091E9008F709091EC0056
:1012F00090FF02C090E801C090E0982B83E08093BB
:10130000E9008091EB0080FF14C08091EE0087FF20
:1013100010C08091E80085FF03C01092F100F9CF62
:101320008091E80080FF05C08091E8008E7780936F
:10133000E8009F709093E900089542E061EC81E03D
:101340000E94210B42E061EC82E00E94210B46E208
:1013500061EC83E00C94210B8091B101833009F49E
:1013600053C030F4813071F0823009F491C0089597
:101370008A3009F47DC08B3009F45EC0893009F0F1
:101380009FC020C08091B001813A09F099C080913E
:10139000E800877F8093E8008091B4019091B501C7
:1013A000892B21F060E080E090E003C068E088E3F2
:1013B00091E070E00E94330D8091E8008B7780937C
:1013C000E80008958091B001813209F079C08091E0
:1013D000B4019091B501892B09F072C08091E800A9
:1013E000877F8093E8008091E80082FD05C08091AE
:1013F000AF018111F8CF64C08091F100809340016A
:101400008091E8008B7758C08091B001813A09F053
:1014100057C08091B4019091B501892B09F050C05B
:101420008091E800877F8093E8008091E80080FF4A
:10143000FCCF80910B013BC08091B001813209F05B
:101440003FC08091B4019091B501892BC9F580917D
:10145000E800877F8093E8000E94560B9091B201CC
:1014600081E0911101C080E080930B010C94311553
:101470008091B001813221F58091E800877F8093CF
:10148000E8000E94560B8091B301809336010895C5
:101490008091B001813AA1F48091E800877F809328
:1014A000E8008091E80080FFFCCF809136018093B6
:1014B000F1008091E8008E778093E8000C94560B41
:1014C000089584B7877F84BF88E10FB6F89480932E
:1014D0006000109260000FBE90E080E80FB6F894B4
:1014E00080936100909361000FBE0E94A70B0E9441
:1014F000040C8091E20084608093E2008AE598E029
:101500000E944E1C78948091AF01843019F00E94A3
:101510003D0FF9CF80E892E00E94B2050E94E10FF2
:1015200081E091E00E945A0F8FE692E00E94B2059E
:101530008091AF01853089F48BE692E00E94B2057C
:101540000E94F41C8091AD01882391F30E941A1D22
:10155000882371F30E940B0BEBCF0E9411100E94A5
:101560003D0FE6CF292F332723303105A9F06CF446
:101570002130310509F442C02230310509F043C061
:101580008BE590E027EC32E042C021323105C9F012
:101590002232310519F137C099278130910541F088
:1015A0008230910541F0892B71F5E3ECF2E005C042
:1015B000E7EBF2E002C0E5EAF2E0849190E09F01FF
:1015C00026C0633000F5E62FF0E0EE0FFF1FE95E66
:1015D000FE4F2081318189E090E019C0633098F49A
:1015E000E62FF0E0DF01AA0FBB1FAF5EBE4F2D91CB
:1015F0003C91E25FFE4F808190E009C082E190E083
:1016000022E233E004C080E090E020E030E0FA0124
:1016100031832083089580E189BD82E189BD09B4C9
:1016200000FEFDCF8091D8008F7D8093D8008091FF
:10163000E00082608093E0008091E00081FDFCCFBB
:101640000895982F973058F59093E900981739F03E
:101650007091EC002091ED005091F00003C0242F18
:10166000762F50E021FF19C03091EB003E7F309380
:10167000EB003091ED003D7F3093ED003091EB00B9
:1016800031603093EB007093EC002093ED005093A9
:10169000F0002091EE0027FF07C09F5FD3CF8F702F
:1016A0008093E90081E0089580E008958091B00181
:1016B00087FD05C08091E80080FF0EC012C08091B8
:1016C000E80082FD05C08091AF018111F8CF089537
:1016D0008091E8008B7708C08091AF018111EACF3B
:1016E00008958091E8008E778093E80008958091B6
:1016F000E4009091E50045E62091EC0020FF21C038
:101700002091E80020FD21C02091AF01222389F023
:10171000253089F02091EB0025FD0FC02091E400D9
:101720003091E5002817390739F3415041F0C901DC
:10173000E3CF82E0089583E0089581E0089584E096
:1017400008952091E80022FFDFCF80E008950E94F5
:10175000100C0E94180CE0EEF0E080818160808324
:10176000E8EDF0E080818F77808319BCA7EDB0E0D1
:101770008C918E7F8C9380818F7E80831092AE01BE
:1017800008950F931F93CF93DF930E94100C0E9434
:10179000180CC8EDD0E088818F77888388818068B5
:1017A000888388818F7D888319BC1092AF01109245
:1017B000AB011092AD011092AC0100EE10E0F80107
:1017C00080818B7F808388818160888342E060E0B4
:1017D00080E00E94210BE1EEF0E080818E7F80832B
:1017E000E2EEF0E080818160808380818860808388
:1017F000F80180818E7F8083888180618883DF917A
:10180000CF911F910F910895E7EDF0E08081816005
:10181000808384E082BF81E08093AE010C94C10B91
:10182000E8EDF0E080818E7F80831092E2000895E1
:101830001092DA001092E10008951F920F920FB6F5
:101840000F9211242F933F934F935F936F937F9346
:101850008F939F93AF93BF93EF93FF938091E1009A
:1018600082FF0BC08091E20082FF07C08091E100FF
:101870008B7F8093E1000E946F098091DA0080FFE6
:101880001FC08091D80080FF1BC08091DA008E7F3E
:101890008093DA008091D90080FF0DC080E189BD7E
:1018A00082E189BD09B400FEFDCF81E08093AF01E4
:1018B0000E94460905C019BC1092AF010E94580948
:1018C0008091E10080FF19C08091E20080FF15C087
:1018D0008091E2008E7F8093E2008091E20080613F
:1018E0008093E2008091D80080628093D80019BC78
:1018F00085E08093AF010E9463098091E10084FF3D
:101900002EC08091E20084FF2AC080E189BD82E17F
:1019100089BD09B400FEFDCF8091D8008F7D8093F2
:10192000D8008091E1008F7E8093E1008091E200F9
:101930008F7E8093E2008091E20081608093E200DC
:101940008091AB01811104C08091E30087FF02C048
:1019500084E001C081E08093AF010E946909809119
:10196000E10083FF24C08091E20083FF20C08091CA
:10197000E100877F8093E10082E08093AF011092C5
:10198000AB018091E1008E7F8093E1008091E200C5
:101990008E7F8093E2008091E20080618093E2007C
:1019A00042E060E080E00E94210B0E945F09FF910D
:1019B000EF91BF91AF919F918F917F916F915F91C7
:1019C0004F913F912F910F900FBE0F901F90189540
:1019D000CF92DF92EF92FF920F931F93CF93DF93FB
:1019E0007C018B01EA010E94770B811133C02097A3
:1019F00031F088819981081B190BE80EF91EC12C62
:101A0000D12C0115110529F18091E80085FD16C042
:101A10008091E8008E778093E8000E943D0F209728
:101A200041F0888199818C0D9D1D9983888385E083
:101A300011C00E94770B882321F30CC0F70181911C
:101A40007F018093F10001501109FFEFCF1ADF0AE7
:101A5000D8CF80E0DF91CF911F910F91FF90EF9051
:101A6000DF90CF9008952091B6013091B7012617ED
:101A7000370748F06115710539F42091E8002E7799
:101A80002093E80001C0B901FC0120E06115710557
:101A9000A9F18091AF018823E9F18530E9F18091C6
:101AA000E80083FD35C08091E80082FF06C0809188
:101AB000E80082FF26C080E008958091E80080FF62
:101AC000E5CF2091F3008091F20090E0922B611518
:101AD000710551F08830910538F421912093F1007F
:101AE000615071090196F3CF21E0089709F020E0D9
:101AF0008091E8008E778093E800C8CF2111C9CF8C
:101B0000D6CF8091AF01882329F0853081F604C0BB
:101B100081E0089582E0089583E008952091B60160
:101B20003091B7012617370748F06115710539F470
:101B30002091E8002E772093E80001C0B901FC0154
:101B400020E061157105C1F18091AF01882309F48E
:101B50003FC0853009F43EC08091E80083FD36C067
:101B60008091E80082FF06C08091E80082FF27C0D4
:101B700080E008958091E80080FFE3CF2091F3009A
:101B80008091F20090E0922B6115710559F0883038
:101B9000910540F424912093F10031966150710930
:101BA0000196F2CF21E0089709F020E08091E8004B
:101BB0008E778093E800C5CF2111C6CFD5CF809115
:101BC000AF01882329F0853079F604C081E00895BB
:101BD00082E0089583E008950F931F93CF93DF93DE
:101BE000CDB7DEB7AA970FB6F894DEBF0FBECDBF54
:101BF000E0EBF1E08091F100819321E0E83BF20716
:101C0000C9F70E94AC098091E80083FF1DC12091B3
:101C1000B0013091B101832F90E08A30910508F036
:101C200013C1FC01EA59FF4F0C941524203881F0B0
:101C3000223809F009C18091B4018F708093E900C6
:101C40008091EB0085FB882780F91092E90006C09F
:101C50008091AC019091AD01911182609091E8006A
:101C6000977F9093E8008093F1001092F100C6C036
:101C7000822F8D7F09F0E8C0222319F0223061F015
:101C8000E3C08091B201813009F0DEC0333009F049
:101C900080E08093AD0128C08091B201811124C001
:101CA0002091B4012F7009F4CFC02093E9008091F6
:101CB000EB0080FF19C08091EB00333011F480629B
:101CC00011C080618093EB0081E090E0022E01C0A2
:101CD000880F0A94EAF78093EA001092EA00809154
:101CE000EB0088608093EB001092E9008091E8009F
:101CF000877F87C02111A8C01091B2011F770FB74D
:101D0000F8948091E800877F8093E8000E94560B4A
:101D10008091E80080FFFCCF8091E3008078812BE8
:101D20008093E30080688093E300112311F083E047
:101D300001C082E08093AF010FBF86C020582230DF
:101D400008F082C08091B2019091B3018C3D23E0F4
:101D5000920779F583E08A838AE289834FB7F89402
:101D6000DE01139620E03EE051E2E32FF0E05093D5
:101D70005700E49120FF03C0E295EF703F5FEF70E2
:101D80008E2F90E0EA3010F0C79601C0C0968D9378
:101D90009D932F5F243149F74FBF8091E800877FE3
:101DA0008093E8006AE270E0CE0101960E94330D54
:101DB00014C0AE014F5F5F4F6091B4010E94B20A40
:101DC000009709F441C02091E800277F2093E800A4
:101DD000BC0189819A810E948E0D8091E8008B77E9
:101DE0008093E80031C0203879F58091E800877F42
:101DF0008093E8008091AB018093F1008091E8002E
:101E00008E778093E8000E94560B1EC021111CC0E3
:101E10009091B2019230C0F48091E800877F809366
:101E2000E8009093AB010E94560B8091AB018111A9
:101E300004C08091E30087FF02C084E001C081E01C
:101E40008093AF010E949D098091E80083FF0AC042
:101E50008091EB0080628093EB008091E800877FA7
:101E60008093E800AA960FB6F894DEBF0FBECDBFF0
:101E7000DF91CF911F910F910895CF938091AF0182
:101E80008823B1F08091E9008F709091EC0090FF71
:101E900002C090E801C090E0C92FC82B1092E90061
:101EA0008091E80083FD0E94EC0DCF70C093E900A3
:101EB000CF910895909346018093450108958091B4
:101EC0004501909146010895E0914501F091460148
:101ED000309721F00190F081E02D099480E0089581
:101EE000FF920F931F93CF93DF938C01E0914501F5
:101EF000F0914601309799F10280F381E02D099528
:101F000080919F0182FF2BC080FF04C081ED93E090
:101F10000E94B205E80188E0F82E0BEC13E08091F6
:101F20009F0180FF0BC088811F928F931F930F9397
:101F30000E944B060F900F900F900F90FA942196ED
:101F4000F110EDCF80919F0180FF09C089EC93E0F3
:101F5000DF91CF911F910F91FF900C94B205DF910B
:101F6000CF911F910F91FF900895209143013091DF
:101F700044018217930771F09093440180934301C9
:101F8000E0914501F0914601309721F00680F781FC
:101F9000E02D09940895209141013091420182176A
:101FA000930771F09093420180934101E0914501C4
:101FB000F0914601309721F00084F185E02D0994DD
:101FC00008950E945C1D0E9480060E94001E0C94D1
:101FD0003723CF93C82F80919F0182FF1EC080FFBF
:101FE00004C08AEE93E00E94B20580919F0180FFB9
:101FF0000CC01F92CF9325EE33E03F932F930E94A6
:102000004B060F900F900F900F9080919F0180FFD3
:1020100004C083EE93E00E94B2058C2FCF910C9404
:10202000E5075F926F927F928F929F92AF92BF92DD
:10203000CF92DF92EF92FF920F931F93CF93DF9394
:10204000CDB7DEB72A970FB6F894DEBF0FBECDBF6F
:102050000E949B0698E4C92E91E0D92E00E010E082
:10206000AA24A394B12C502E802F0E94A5073C01D6
:10207000F601E190F1906F01E826F926E114F104F0
:10208000B1F40F5F1F4F0630110569F78FEF898399
:102090008A831B820E94651D8160782F9D838C83BB
:1020A00049815A816B818D810E94C8103AC080910C
:1020B0009F0181FD0E94AE0720E030E04501022E25
:1020C00002C0880C991C0A94E2F7C4018E219F215A
:1020D000892B09F12E835F826820792081E06728AF
:1020E00009F480E088870E94651D8160782F9A87B7
:1020F00089874E815F8168858A850E94C810F801B2
:10210000EE0FFF1FE85BFE4F8081918188259925A6
:102110009183808306C02F5F3F4F2031310571F6D8
:10212000B0CF109147010E94640F1817D9F00E9498
:10213000640F809347012A960FB6F894DEBF0FBE56
:10214000CDBFDF91CF911F910F91FF90EF90DF9066
:10215000CF90BF90AF909F908F907F906F905F9047
:102160000C94E90F2A960FB6F894DEBF0FBECDBFD0
:10217000DF91CF911F910F91FF90EF90DF90CF9063
:10218000BF90AF909F908F907F906F905F900895D9
:10219000CF93DF93CDB7DEB72B970FB6F894DEBFA2
:1021A0000FBECDBF4F83588769877A878B87DE0143
:1021B000119686E0FD0111928A95E9F785E0FE010E
:1021C000379601900D928A95E1F749815A816B818A
:1021D0007C818D819E810E94F9172B960FB6F89411
:1021E000DEBF0FBECDBFDF91CF910895CF93C82F33
:1021F000882309F498C08CEF8C0F813A48F48C2F17
:102200000E94E32281118FC08C2F0E94941A0CC06F
:1022100080E28C0F883058F4C77081E001C0880FCD
:10222000CA95EAF70E94D61ACF910C940F1B8BE542
:102230008C0F833078F4C53A29F0C63A31F482E83D
:1022400090E005C081E890E002C083E890E0CF9183
:102250000C94B50F88E58C0F833108F064C0C83A40
:1022600039F1C93A41F1CA3A49F1CB3A51F1CC3A84
:1022700059F1CD3A61F1C03B69F1CE3A71F1CF3AF3
:1022800079F1C13B81F1C23B89F1C33B91F1C43B80
:1022900099F1C53BA1F1C63BA9F1C73BB1F1C83BE0
:1022A000B9F1C93BC1F1CA3BC9F58AE292E038C035
:1022B00082EE90E035C089EE90E032C08AEE90E088
:1022C0002FC085EB90E02CC086EB90E029C087EB17
:1022D00090E026C08CEC90E023C08DEC90E020C014
:1022E00083E891E01DC08AE891E01AC082E991E09C
:1022F00017C084E991E014C081E292E011C083E24A
:1023000092E00EC084E292E00BC085E292E008C049
:1023100086E292E005C087E292E002C080E090E0B1
:10232000CF910C94CB0FCF910895882329F19CEF86
:10233000980F913A18F40E94B51A0DC090E2980FC8
:10234000983058F4877091E001C0990F8A95EAF7A8
:10235000892F0E94DC1A0C940F1B9BE5980F933079
:1023600020F480E090E00C94B50F885A833120F47B
:1023700080E090E00C94CB0F0895882321F00E9418
:10238000D61A0C940F1B0895882321F00E94DC1AA2
:102390000C940F1B0895CF92DF92EF92FF920F9350
:1023A0001F93CF93DF93CDB7DEB728970FB6F8947E
:1023B000DEBF0FBECDBF8C0185E0F801DE011196B6
:1023C00001900D928A95E1F7F80140813181F28008
:1023D000258122952F7083819481892B31F03F3F95
:1023E00031F481E04F3F19F403C081E001C080E087
:1023F00080FD1AC349833A8389819A812F830E9481
:10240000521A9E8388870E94511A0E9424194E8175
:10241000E42FE295EF70F0E0E059FF4F2F816885DF
:102420000C941524842F807F142F1F70882311F0A3
:102430001295107FFF2059F0112309F440C2812F1B
:1024400068870E94E61A0E940F1B688538C2862F93
:102450000E949511112309F4E7C2812F0E94EC1A02
:1024600028960FB6F894DEBF0FBECDBFDF91CF9197
:102470001F910F91FF90EF90DF90CF900C940F1B66
:10248000342F307F842F8F70303211F08295807F0F
:10249000662319F0613009F12AC0FF20A1F0222340
:1024A00081F1213071F528960FB6F894DEBF0FBE8A
:1024B000CDBFDF91CF911F910F91FF90EF90DF90F3
:1024C000CF900C94F61A222319F0213009F4ACC2F3
:1024D0008E830E94F91A8E8176C1FF2021F026306A
:1024E00008F0A2C20EC0253008F09EC26CC1FF20C9
:1024F000C1F0222331F0F801958190FFE0C19F7077
:10250000958328960FB6F894DEBF0FBECDBFDF913E
:10251000CF911F910F91FF90EF90DF90CF900C948F
:10252000BD11222309F44FC1DEC1242F2695269523
:10253000237030E02115310521F021303105C9F03B
:1025400073C2FF2021F0862F942F937002C080E089
:1025500090E028960FB6F894DEBF0FBECDBFDF9196
:10256000CF911F910F91FF90EF90DF90CF900C943F
:10257000B50FFF2021F0862F942F937002C080E0CA
:1025800090E028960FB6F894DEBF0FBECDBFDF9166
:10259000CF911F910F91FF90EF90DF90CF900C940F
:1025A000CB0F842F837009F076C0F1103DC2262F27
:1025B000229526952770220F220F862F8F70C82E06
:1025C000D12CE12CF12C022E04C0CC0CDD1CEE1C15
:1025D000FF1C0A94D2F764FF10C06FE070E080E047
:1025E00090E004C0660F771F881F991F2A95D2F7C5
:1025F000609570958095909503C060E070E0CB0188
:10260000242F269526952370422F50E04230510505
:10261000D1F04330510559F16C297D298E299F292C
:102620004130510541F128960FB6F894DEBF0FBE38
:10263000CDBFDF91CF911F910F91FF90EF90DF9071
:10264000CF900C9449196C297D298E299F292896B1
:102650000FB6F894DEBF0FBECDBFDF91CF911F91B3
:102660000F91FF90EF90DF90CF900C9463190E9430
:102670004919C701B60128960FB6F894DEBF0FBE00
:10268000CDBFDF91CF911F910F91FF90EF90DF9021
:10269000CF900C942F19FF2019F0842F817001C066
:1026A0008695882309F4C0C1262F22952695277088
:1026B000220F220F862F8F70C82ED12CE12CF12CE7
:1026C000022E04C0CC0CDD1CEE1CFF1C0A94D2F7B9
:1026D00064FF10C06FE070E080E090E004C0660F1F
:1026E000771F881F991F2A95D2F76095709580955E
:1026F000909503C060E070E0CB01242F26952695CD
:102700002370422F50E042305105D1F04330510543
:1027100059F16C297D298E299F294130510541F1BC
:1027200028960FB6F894DEBF0FBECDBFDF91CF91D4
:102730001F910F91FF90EF90DF90CF900C941D1A96
:102740006C297D298E299F2928960FB6F894DEBF23
:102750000FBECDBFDF91CF911F910F91FF90EF90F2
:10276000DF90CF900C94371A0E941D1AC701B60152
:1027700028960FB6F894DEBF0FBECDBFDF91CF9184
:102780001F910F91FF90EF90DF90CF900C94031A60
:10279000603F49F118F4603E48F48CC0623F09F490
:1027A00051C0E0F1633F09F461C084C0162F1F706F
:1027B000842F8F71FF2021F00E949C19812FA1CEC0
:1027C0000E94BD19812F28960FB6F894DEBF0FBE68
:1027D000CDBFDF91CF911F910F91FF90EF90DF90D0
:1027E000CF900C94C411FF20A9F0253008F01CC133
:1027F000842F8F7128960FB6F894DEBF0FBECDBF21
:10280000DF91CF911F910F91FF90EF90DF90CF90CC
:102810000C94E219263008F007C1EACFFF20A1F09E
:10282000842F8F7128960FB6F894DEBF0FBECDBFF0
:10283000DF91CF911F910F91FF90EF90DF90CF909C
:102840000C949C19FF2061F3842F8F7128960FB68A
:10285000F894DEBF0FBECDBFDF91CF911F910F91D6
:10286000FF90EF90DF90CF900C94BD19FF2091F076
:10287000842F8F7128960FB6F894DEBF0FBECDBFA0
:10288000DF91CF911F910F91FF90EF90DF90CF904C
:102890000C94871928960FB6F894DEBF0FBECDBFF3
:1028A000DF91CF911F910F91FF90EF90DF90CF902C
:1028B0000C947D19FF20A1F0222309F4B1CF862FBB
:1028C00028960FB6F894DEBF0FBECDBFDF91CF9133
:1028D0001F910F91FF90EF90DF90CF900C94F61026
:1028E000222309F4B1CF862F28960FB6F894DEBFC5
:1028F0000FBECDBFDF91CF911F910F91FF90EF9051
:10290000DF90CF900C9495114F70C8010E944A1C23
:1029100028960FB6F894DEBF0FBECDBFDF91CF91E2
:102920001F910F91FF90EF90DF90CF900C94A6181D
:10293000F1107AC0942F9F70492F50E0423051051A
:1029400009F440C0BCF44115510561F14130510515
:1029500009F06AC028960FB6F894DEBF0FBECDBF4F
:10296000DF91CF911F910F91FF90EF90DF90CF906B
:102970000C946C2343305105A9F14430510509F002
:1029800053C0862F28960FB6F894DEBF0FBECDBF7A
:10299000DF91CF911F910F91FF90EF90DF90CF903B
:1029A0000C94F92328960FB6F894DEBF0FBECDBF66
:1029B000DF91CF911F910F91FF90EF90DF90CF901B
:1029C0000C94482328960FB6F894DEBF0FBECDBFF7
:1029D000DF91CF911F910F91FF90EF90DF90CF90FB
:1029E0000C949B2328960FB6F894DEBF0FBECDBF84
:1029F000DF91CF911F910F91FF90EF90DF90CF90DB
:102A00000C94C1234F70C80128960FB6F894DEBF0E
:102A10000FBECDBFDF91CF911F910F91FF90EF902F
:102A2000DF90CF900C944D1C28960FB6F894DEBF23
:102A30000FBECDBFDF91CF911F910F91FF90EF900F
:102A4000DF90CF9008950E94F31A0E94C81A0E9446
:102A50000F1B80E090E00E94B50F80E090E00C94A6
:102A6000CB0F0E94E31A0C9423150E94521A292FAF
:102A700022952F7030E02C3031054CF42A3031058E
:102A80006CF4225031092230310570F407C02C302B
:102A9000310531F02F30310519F006C081E008957D
:102AA00093FB882780F9089580E00895CF93DF9302
:102AB00000D000D01F92CDB7DEB70F900F900F90CF
:102AC0000F900F90DF91CF910895CF93DF9300D0B7
:102AD00000D000D0CDB7DEB726960FB6F894DEBF93
:102AE0000FBECDBFDF91CF9108951F93CF93DF939A
:102AF000C091540116E080915501C81799F0D0E0BB
:102B00001C9FF0011D9FF00D1124EA5AFE4F4081D9
:102B1000518162817381848195810E94651521961E
:102B2000C770E9CFDF91CF911F9108954091860141
:102B300050918701609188017091890180918A018B
:102B400090918B010C946515CF9380918B018295A8
:102B50008F7009F05FC080918801882309F45AC002
:102B600020915401A09155016091860170918701D7
:102B70008091890190918A0131E06F3F09F030E046
:102B8000B32FC6E02A1709F445C0009721F07F3F14
:102B900021F44B2F03C041E001C040E030E040FD94
:102BA00035C0C29FF001C39FF00D1124EA5AFE4FB9
:102BB000418174132BC04081641328C042814111AC
:102BC00025C0438154814817590710F441505109D9
:102BD000481B590B483C5105C8F480918B018F70FC
:102BE000806180938B0186E0829FF001839FF00DCE
:102BF0001124E55AFE4F80818F708061808386E8C2
:102C000091E00E94CB11CF910C9475152F5F3F4F2F
:102C10002770B8CFCF910895CF92DF92EF92FF92B5
:102C20000F931F93CF93DF93CDB7DEB762970FB6A5
:102C3000F894DEBF0FBECDBF8C0185E0F801DE0148
:102C40001D9601900D928A95E1F7D8014C9111964D
:102C50005C91119712966C9112971396ED90FC90DF
:102C6000149770918601E09187012091890130913C
:102C70008A012115310531F0EF3F31F481E07F3FCA
:102C800019F403C081E001C080E0B82FB170CB2EF1
:102C900080FD6CC1D0908801DD2009F4F5C0F09171
:102CA0008B01E216F30638F0C701821B930B883CB8
:102CB000910548F09BC0209530952E0D3F1D283C76
:102CC000310508F093C08F2F807F09F052C0E513C3
:102CD00014C0741312C0D62E61110FC0FF70F061C2
:102CE000F0938B010E94961586E891E00E94CB112B
:102CF00080918B01F80185836CC1EF2831F05F3F33
:102D000031F481E04F3F19F403C081E001C080E05D
:102D100080FD03C081E0862701C080E0F82FF170BC
:102D2000FF2E80FF1CC0809154012091550136E098
:102D3000821709F428C190E0389FF001399FF00D07
:102D40001124EA5AFE4F7181571306C07081471350
:102D500003C07281671303C001968770E9CFD62E36
:102D6000662309F436C180918B01816080938B01C9
:102D700053C0E51308C0741306C0611104C0D80124
:102D80001596FC93AEC04D875E878D859E856A8BB8
:102D90000E9435156A89882329F1D62E662311F100
:102DA00020918B01822F82958F7090E002970CF416
:102DB00060C0809186019091870198878F831986E2
:102DC000FB86EA862C87CE01079651C0E51731F1C4
:102DD0004D875E878D859E856A8B0E9435156A8931
:102DE00081112EC0C8010E94CB11A4C08F2F807FFB
:102DF00069F77E2DF98AE88A89890E94561586E846
:102E000091E00E94CB11E6E8F1E086E0DF011D923F
:102E10008A95E9F70E949615D12CDBC07413D8CFA0
:102E20006111D6CFD8011596FC93C8010E94CB1131
:102E3000E6E8F1E086E0DF011D928A95E9F7C9C076
:102E4000D62E662379F220918B01822F82958F7086
:102E500090E0029774F080918601909187019A83A7
:102E600089831B82FD82EC822E83CE0101960E9413
:102E7000CB1186E0F801A6E8B1E001900D928A95A9
:102E8000E1F70E94A4156FC0E216F30628F0C7010F
:102E9000821B930B9C0104C0209530952E0D3F1D85
:102EA000283C310508F052C0D62E662309F49ACF8B
:102EB000E5132CC074132AC080918B0180FD1DC0C6
:102EC000982F92959F70C9F0D80115968C931597FD
:102ED0009F3039F09F5F9295907F8F70892B159668
:102EE0008C93C8010E94CB1186E0F801A6E8B1E0FE
:102EF00001900D928A95E1F736C086E0F801A6E8C8
:102F0000B1E001900D928A95E1F763C04D875E872D
:102F10008D859E850E943515882379F086E0F8011D
:102F2000A6E8B1E001900D928A95E1F70E94A41500
:102F30000E949615DD24D3944CC080918B01816052
:102F400080938B01C8010E94CB1143C07E2DF98A6A
:102F5000E88A89890E945615E6E8F1E086E0DF01FB
:102F60001D928A95E9F70E94961533C0662309F4ED
:102F700039CF4D875E878D859E850E9435158823C4
:102F800009F430CFCBCF4D875E878D859E850E941B
:102F9000521A292F22952F7030E0223031052CF45F
:102FA0009F7041F0811106C00CC0243031052CF413
:102FB0009F7049F4805E883020F0C8010E94CB11D8
:102FC000CF2CDC2C06C0D80115969C91907F91F7F0
:102FD000F8CF8D2D62960FB6F894DEBF0FBECDBF31
:102FE000DF91CF911F910F91FF90EF90DF90CF90E5
:102FF00008951F93CF93DF93CDB7DEB72C970FB60D
:10300000F894DEBF0FBECDBF4F83588769877A879C
:103010008B879C87CE0107960E940C168823C1F0EF
:103020002F8138858A859B85892B31F03F3F11F0B0
:1030300080E003C02F3FE1F781E0811147C04F815D
:10304000588569857A858B859C850E9465153EC06B
:1030500086E0FE013796DE01119601900D928A9569
:10306000E1F7FF81E8854A855B854115510531F01F
:10307000EF3F31F481E0FF3F19F403C081E001C06C
:1030800080E080FD23C02091550130E0C901019608
:10309000877099276091540170E086179707F1F1C6
:1030A000F983EA835D834C8396E0929FD001939FDE
:1030B000B00D1124AA5ABE4FFE01319601900D9217
:1030C0009A95E1F7809355010E94751516E080915D
:1030D000540190915501891779F1189FC00111246D
:1030E0008A5A9E4F0E940C16882331F1E0915401B8
:1030F0001E9FF0011124EA5AFE4F408151816281E6
:103100007381848195810E9465158091540190E0BE
:1031100001968770992780935401D9CF0E94311569
:103120001092550110925401E6E8F1E086E0DF01CB
:103130001D928A95E9F7CACF2C960FB6F894DEBF98
:103140000FBECDBFDF91CF911F910895EF92FF92F7
:103150000F931F93CF93DF93FC01009709F46DC089
:10316000F12CEE24E394EF0121968491843740F40E
:10317000843008F053C0813081F0823021F15DC08D
:10318000853709F445C0B0F19CE7980F903708F0F7
:1031900054C08F770E94951143C08F010E5F1F4F5F
:1031A000FE01849190E2980F983050F48770FE2DC4
:1031B00001C0FF0F8A95EAF78F2F0E94E61A15C00B
:1031C0000E94F61012C08F010E5F1F4FFE01849106
:1031D00090E2980F983058F48770FE2D01C0FF0FD1
:1031E0008A95EAF78F2F0E94EC1AE80119C00E9415
:1031F0009511FBCFCF010296FE01C491CC2361F063
:10320000EFE9FFE03197F1F700C00000C150F6CFC1
:10321000CF010296FE01F490EC0102C00E94F6106C
:103220008F2D882341F0EFE9FFE03197F1F700C0DF
:1032300000008150F6CFFE0196CFDF91CF911F9114
:103240000F91FF90EF90089508956093900170930F
:10325000910180939201909393010C9423150F9305
:103260001F93009190011091910120919201309152
:103270009301062B172B282B392B009390011093C9
:10328000910120939201309393011F910F910C941F
:1032900023150F931F93009190011091910120919C
:1032A0009201309193010623172328233923009399
:1032B00090011093910120939201309393011F91FB
:1032C0000F910C9423150F931F930091900110916F
:1032D0009101209192013091930106271727282709
:1032E000392700939001109391012093920130931C
:1032F00093011F910F910C94231510928C01109241
:103300008D0110928E0110928F010C94231541E0D3
:1033100050E060E070E004C0440F551F661F771F47
:103320008A95D2F740938C0150938D0160938E0162
:1033300070938F010C94231541E050E060E070E041
:1033400004C0440F551F661F771F8A95D2F78091DE
:103350008C0190918D01A0918E01B0918F01842BF1
:10336000952BA62BB72B80938C0190938D01A09366
:103370008E01B0938F010C94231541E050E060E082
:1033800070E004C0440F551F661F771F8A95D2F75F
:10339000409550956095709580918C0190918D012C
:1033A000A0918E01B0918F0184239523A623B7238A
:1033B00080938C0190938D01A0938E01B0938F0127
:1033C0000C94231541E050E060E070E004C0440F2D
:1033D000551F661F771F8A95D2F780918C019091B7
:1033E0008D01A0918E01B0918F0184279527A6278A
:1033F000B72780938C0190938D01A0938E01B09399
:103400008F010C9423150F931F9300918C01109141
:103410008D0120918E0130918F01062B172B282BC7
:10342000392B00938C0110938D0120938E013093E2
:103430008F011F910F910C9423150F931F930091EF
:103440008C0110918D0120918E0130918F01062306
:1034500017232823392300938C0110938D01209387
:103460008E0130938F011F910F910C9423150F93B0
:103470001F9300918C0110918D0120918E0130914C
:103480008F01062717272827392700938C011093CF
:103490008D0120938E0130938F011F910F910C9419
:1034A00023150895CF92DF92EF92FF920F931F930F
:1034B000CF93DF93EC01C0909001D0909101E09008
:1034C0009201F090930180918C0190918D01A091D7
:1034D0008E01B0918F01C82AD92AEA2AFB2A0FE16E
:1034E00010E0B701A601002E04C0769567955795A8
:1034F00047950A94D2F740FF07C0BE01802F0E9473
:10350000D71B8130910539F40150110950F7BE01E4
:1035100080E00E94D71BDF91CF911F910F91FF9008
:10352000EF90DF90CF90089540910C0150910D01E4
:1035300020E030E09FEFFA01E20FF31F628168178D
:1035400099F09F3F19F4611101C0922F2F5F3F4FF7
:103550002630310581F79F3F39F0FA01E90FF11D5F
:1035600097FDFA9582830895089540910C0150913A
:103570000D0120E030E0FA01E20FF31F9281981371
:1035800001C012822F5F3F4F26303105A1F7089509
:1035900081E090E0E0910C01F0910D01E80FF91F3E
:1035A0001082019688309105A9F7089590919E01A7
:1035B000982B90939E010895809590919E01982359
:1035C00090939E01089510929E01089590919D01FF
:1035D000982B90939D010895809590919D0198233B
:1035E00090939D01089510929D01089580939401F8
:1035F000089510929401089540910C0150910D018D
:1036000020E030E080E0FA01E20FF31F9181911198
:103610008F5F2F5F3F4F27303105A9F70895E09165
:103620000C01F0910D0180919E018083E0910C01CD
:10363000F0910D01808190919D01892B8083909163
:103640009401992361F0E0910C01F0910D018081CA
:10365000892B80830E94FC1A811110929401809121
:103660000C0190910D010C94700F8B3B60F4883A23
:1036700000F5853AA8F4843088F4813009F055C00B
:1036800081E090E00895803E08F44FC0883E30F01D
:10369000803F08F44AC090E09065089590E0089556
:1036A000853A09F445C0863A09F045C082E890E4BD
:1036B0000895883A09F442C0893A09F442C08A3A26
:1036C00009F442C08B3A09F442C08C3A09F442C072
:1036D0008D3A09F442C0803B09F442C08E3A09F4A5
:1036E00042C08F3A09F442C0813B09F442C0823B98
:1036F00009F442C0833B09F442C0843B09F442C050
:10370000853B09F442C0863B09F442C0873B09F47B
:1037100042C0883B09F442C0893B09F442C08A3B5D
:1037200009F042C08AE296E4089580E090E00895AE
:1037300081E890E4089583E890E4089582EE94E4AB
:10374000089589EE94E408958AEE94E4089585EB53
:1037500094E4089586EB94E4089587EB94E4089547
:103760008CEC94E408958DEC94E4089583E895E45A
:1037700008958AE895E4089582E995E4089584E936
:1037800095E4089581E296E4089583E296E408952D
:1037900084E296E4089585E296E4089586E296E44C
:1037A000089587E296E4089580E094E408950E94E5
:1037B0005606803EA8F4803C00F5813309F45CC0D5
:1037C00038F4893209F452C08A3209F45BC05FC010
:1037D0008933B1F08238A1F0853309F441C057C074
:1037E000833E41F128F4803E99F0823EB9F04FC00B
:1037F000863E31F1873E71F14AC00E946806089505
:103800009091AA0190FD02C091FF41C080EE3FC09F
:103810008091AA0180FFFACF89E339C08091AA0183
:1038200082FF0CC08091AA0184FF02C080E02FC0FB
:1038300083EE2DC08091AA0182FFF4CF82EE27C0D3
:103840008091AA0183FF0AC08091AA0184FDEECF76
:1038500087EE1DC08091AA0183FFF6CF86EE17C0C8
:103860008091AA0185FF06C089E211C08091AA015A
:1038700085FFFACF85E30BC08091AA0186FF06C0C1
:103880008AE205C08091AA0186FFFACF81E30E94F7
:10389000351B089580E090E0089508959093A2016B
:1038A0008093A1010895CF92DF92EF92FF920F9340
:1038B0001F936C01EE24FF24C114D104E104F10430
:1038C00021F46B017C0180E001C080E133272F2DC2
:1038D0001E2D0D2D011511052105310519F0885FEB
:1038E0006801790197018601A4E03695279517951F
:1038F0000795AA95D1F7011511052105310519F094
:103900008C5F6801790197018601F2E03695279571
:1039100017950795FA95D1F7011511052105310580
:1039200019F08E5F68017901B701A6017695679558
:1039300057954795452B462B472B09F08F5F1F91D5
:103940000F91FF90EF90DF90CF9008958295982F80
:103950009C7C96959695837344E0849F90011124F6
:10396000922B892F8A7A86959575990F892B0895C0
:103970001F93CF93DF931F92CDB7DEB799830E9439
:10398000A61C182F9981892F0E94A61C212F30E098
:10399000322F2227A901482BCA010F90DF91CF9126
:1039A0001F910895CF92DF92EF92FF92CF93DF9312
:1039B0006B017C01CB010E94B81CEC01C7010E9485
:1039C000B81C6C01CE01A0E0B0E077276627E12C9F
:1039D000F12C6C297D298E299F29DF91CF91FF90B1
:1039E000EF90DF90CF9008958091AF01843009F17E
:1039F0001092A00120E488E190E00FB6F894A89519
:103A0000809360000FBE2093600083B7817F846045
:103A100083BF83B7816083BF7894889583B78E7F97
:103A200083BF88E10FB6F894809360001092600025
:103A30000FBE0895CF930E9454060E949B060E94D9
:103A40005506C0E08C2F0E94A507892B29F4CF5F73
:103A5000C630C1F780E001C081E0CF9108950E9497
:103A600031150C9437231F920F920FB60F92112429
:103A70008F939F93AF93BF938091A001811113C047
:103A80008091A3019091A401A091A501B091A601FC
:103A90004196A11DB11D8093A3019093A401A09311
:103AA000A501B093A601BF91AF919F918F910F9007
:103AB0000FBE0F901F90189582E084BD93E095BDD6
:103AC0009AEF97BD80936E0008952FB7F894809178
:103AD000A3019091A401A091A501B091A6012FBFCF
:103AE00008951F920F920FB60F9211248F939F93F8
:103AF000AF93BF938091A3019091A401A091A501E0
:103B0000B091A6010196A11DB11D8093A3019093D0
:103B1000A401A093A501B093A601BF91AF919F917D
:103B20008F910F900FBE0F901F9018950E94A70BBA
:103B3000F8942FEF87EA91E6215080409040E1F71A
:103B400000C0000087E090EBDC018093B901909306
:103B5000BA01A093BB01B093BC012CE088E190E0D6
:103B60000FB6F894A895809360000FBE2093600074
:103B7000FFCFCF92DF92EF92FF920F931F93CF93DD
:103B8000DF93C82ED12C01E010E08D2D0E94A507F7
:103B90007C01C0E0D0E098010C2E02C0220F331F40
:103BA0000A94E2F72E213F21232B29F42196C031DC
:103BB000D10589F709C06C2F7D2D80E00E94560643
:103BC000C812F4CF81E005C0D39486E0D812DDCFCF
:103BD00080E0DF91CF911F910F91FF90EF90DF90E8
:103BE000CF900895CF93C82F8CE20E94B91D8823EF
:103BF00021F08C2FCF910C94B91D80E0CF910895C6
:103C0000CF930E944B1F811102C00E942C1F84E0A1
:103C100094E00E94B205C5E6C15049F00E949B069F
:103C20008FE39CE90197F1F700C00000F5CF8DEF1D
:103C300093E00E94B20589E20E94F21D81110AC13F
:103C40008AE20E94F21D81110E942C1F85E00E94D1
:103C5000F21D81110E94961D0E94561F80939F01A4
:103C600087E00E94F21D882399F18BE10E94F21DEA
:103C7000882351F090919F0191FB882780F921E0E2
:103C8000822780FB91F922C08EE00E94F21D8823DA
:103C900051F090919F0192FB882780F921E08227C3
:103CA00080FB92F913C080E10E94F21D90919F0168
:103CB000882341F093FB882780F921E0822780FB4D
:103CC00093F904C0892F809580FB90F990939F0110
:103CD00080919F010E945A1F0E94681F8093AA0131
:103CE00080EE0E94F21D882341F08091AA01982F56
:103CF000909590FB80F98093AA0189E30E94F21DC0
:103D0000882359F09091AA0191FB882780F921E03E
:103D1000822780FB91F99093AA0182EE0E94F21D06
:103D2000882359F09091AA0192FB882780F921E01D
:103D3000822780FB92F99093AA0186EE0E94F21DE1
:103D4000882359F09091AA0193FB882780F921E0FC
:103D5000822780FB93F99093AA0183EE0E94F21DC3
:103D6000882359F09091AA0194FB882780F921E0DB
:103D7000822780FB94F99093AA0185E30E94F21DAB
:103D8000882359F09091AA0195FB882780F921E0BA
:103D9000822780FB95F99093AA0181E30E94F21D8E
:103DA000882359F09091AA0196FB882780F921E099
:103DB000822780FB96F99093AA0181E10E94F21D6F
:103DC000882359F09091AA0197FB882780F921E078
:103DD000822780FB97F99093AA018091AA010E9403
:103DE0006C1F87E20E94F21DC82F8EE10E94F21D17
:103DF0008111C2608FE10E94F21D8111C46080E2D6
:103E00000E94F21D8111C86081E20E94F21D8111A1
:103E1000C06182E20E94F21D8111C06283E20E94B1
:103E2000F21D8111C06484E20E94F21D882311F00A
:103E3000C06802C0CC2329F08C2F0E94631F6C2F16
:103E400003C00E945F1F682F70E080E090E0CF9178
:103E50000C942519CF9108956DEE7EEF80E090E0EF
:103E60000E94372460E082E090E00E94292460E014
:103E700083E090E00E94292460E084E090E00E94CA
:103E8000292460E085E090E00E94292460E086E03B
:103E900090E00C94292480E090E00E94232421E00B
:103EA0008D3E9E4F09F020E0822F089582E090E041
:103EB0000C941B24682F82E090E00C94292483E06A
:103EC00090E00C941B24682F83E090E00C9429244C
:103ED00084E090E00C941B24682F84E090E00C9424
:103EE000292486E090E00C941B24682F86E090E063
:103EF0000C942924CF93C82F80E494E00E94B2054B
:103F00006091900170919101809192019091930143
:103F10000E94531C1F928F932DE334E03F932F9305
:103F20000E944B0688E394E00E94B2051F92CF9353
:103F300025E334E03F932F930E944B0683E394E004
:103F40000E94B20561E070E080E090E004C0660F7E
:103F5000771F881F991FCA95D2F70E9425198DB720
:103F60009EB708960FB6F8949EBF0FBE8DBFCF9137
:103F70000C943115CF93873208F06BC08E3108F066
:103F800010C38E3009F493C240F5873009F463C240
:103F9000E8F4863009F00BC380919F01817F8E7F0A
:103FA00080939F0184E694E00E94B20587E594E047
:103FB0000E94B20582E39AE00E94B2058EE29AE086
:103FC0000E94B20581E08093A701FCC1883009F40A
:103FD0006FC08B3009F4F8C1EAC2873109F4ABC273
:103FE00088F5803109F476C2863109F0E0C282E1B9
:103FF00098E00E94B2050E94640F1F928F9388EF91
:1040000097E09F938F930E944B0680910B011F9224
:104010008F9381EE97E09F938F930E944B06809140
:1040200036011F928F938EEC97E09F938F930E949F
:104030004B068DB79EB70C960FB6F8949EBF0FBE79
:104040008DBFC0C1893109F45FC28B3109F41CC234
:10405000AEC2893309F499C178F4893209F49FC258
:1040600020F4873209F49BC2A2C2853309F497C2B7
:10407000883309F4A9C19BC2863409F475C208F4D7
:1040800092C2883409F093C20E94311585E19AE00A
:104090000E94B2059FEF23ED80E3915020408040C5
:1040A000E1F700C000000E94961D85E09AE088C1FB
:1040B0008BE59AE00E94B2058CEB97E00E94B20576
:1040C0000E945F1F1F928F9389EB97E09F938F93BE
:1040D0000E944B0687EB97E00E94B2050E94561F94
:1040E000C82F84EA97E00E94B2051F92CF932FE970
:1040F00037E03F932F930E944B068DE997E00E9493
:10410000B20583E997E00E94B2058C2F81701F925F
:104110008F9320E937E03F932F930E944B068EE860
:1041200097E00E94B20584E897E00E94B205C1FBC7
:10413000882780F91F928F9321E837E03F932F93D0
:104140000E944B068FE797E00E94B20583E797E055
:104150000E94B205C2FB882780F91F928F9320E747
:1041600037E03F932F930E944B068EE697E00E9424
:10417000B20585E697E00E94B205C3FBCC27C0F9E3
:104180001F92CF9382E697E09F938F930E944B06F6
:1041900080E697E00E94B2050E94681FC82F8CE459
:1041A00097E00E94B2051F92CF9327E437E03F9338
:1041B0002F930E944B0685E497E00E94B2058CE2A3
:1041C00097E00E94B2058C2F81701F928F9329E295
:1041D00037E03F932F930E944B068DB79EB7809692
:1041E0000FB6F8949EBF0FBE8DBF87E297E00E9486
:1041F000B20580E197E00E94B205C1FB882780F9F3
:104200001F928F932DE037E03F932F930E944B0630
:104210008BE097E00E94B20589EF96E00E94B2051C
:10422000C2FB882780F91F928F9326EF36E03F93D9
:104230002F930E944B0684EF96E00E94B20582EE17
:1042400096E00E94B205C3FB882780F91F928F93E6
:104250002FED36E03F932F930E944B068DED96E0B5
:104260000E94B20583ED96E00E94B205C4FB882748
:1042700080F91F928F9320ED36E03F932F930E9499
:104280004B068EEC96E00E94B2058CEB96E00E9405
:10429000B205C5FB882780F91F928F9329EB36E082
:1042A0003F932F930E944B0687EB96E00E94B20546
:1042B0008BE996E00E94B205C6FB882780F91F9221
:1042C0008F9328E936E03F932F930E944B0686E9AF
:1042D00096E00E94B2058EE896E00E94B205C7FB08
:1042E000CC27C0F91F92CF938BE896E09F938F93D2
:1042F0000E944B0689E896E00E94B2050E94711F59
:10430000C82F82E796E00E94B2051F92CF932DE658
:1043100036E03F932F930E944B068DB79EB7809651
:104320000FB6F8949EBF0FBE8DBF8BE696E00E943D
:10433000B20581E696E00E94B2058C2F81701F9233
:104340008F932EE536E03F932F930E944B068CE52A
:1043500096E00E94B20583E596E00E94B205C695FC
:104360001F92CF9380E596E09F938F930E944B0618
:104370008EE496E00E94B2058DB79EB708960FB600
:10438000F8949EBF0FBE8DBF1DC00E945F0F892B8A
:1043900079F00E945F0F9093A9018093A8010E9479
:1043A000311580E090E00E945A0F82E59AE008C043
:1043B0008091A8019091A9010E945A0F87E49AE088
:1043C0000E94B205C1E0F8C082E396E00E94B20507
:1043D0008BE196E00E94B20583E096E00E94B20570
:1043E0008BEE95E00E94B20581ED95E00E94B2054A
:1043F0008AEB95E00E94B2058AE995E00E94B20539
:1044000084E895E00E94B20583E795E00E94B2053A
:104410008BE595E00E94B20581E495E00E94B2052B
:1044200088E295E00E94B2058FE095E00E94B20517
:1044300086EF94E00E94B2058DED94E00E94B205F3
:104440008CEB94E00E94B2058AE994E00E94B205E8
:1044500080E894E0B5CF80919F01C82FC17080FFA4
:1044600009C082EF99E00E94B20580919F01817F8F
:104470008E7F44C080EE99E00E94B20580919F013A
:10448000816080939F019ECF80919F0181FBCC270B
:10449000C0F991E0C927C0FB81F980939F01CC232B
:1044A00019F087EC99E025C08DEA99E089CF8091D9
:1044B0009F0182FBCC27C0F991E0C927C0FB82F99C
:1044C00080939F01CC2319F082E999E012C086E71E
:1044D00099E076CF80919F0183FBCC27C0F991E0D2
:1044E000C927C0FB83F980939F01CC2351F08EE54F
:1044F00099E00E94B20580919F01816080939F01A5
:104500005BC085E499E05CCF8EE299E00E94B20541
:1045100082E099E00E94B2058EEC98E00E94B2051C
:1045200081EA98E00E94B2058AE698E00E94B2050E
:104530008CE398E045CF8091A3019091A401A091D4
:10454000A501B091A601BF93AF939F938F9388E28B
:1045500098E09F938F930E944B060F900F900F90BF
:104560000F900F900F902ECF81E890E00E94B50F32
:104570009FEF21EE84E0915020408040E1F700C0A1
:10458000000080E090E00E94B50F9FEF29E688E1EF
:10459000915020408040E1F700C0000013CF80E040
:1045A00003C08D5101C089530E947A1F0BCF8CEC40
:1045B00097E00E94B205C0E08C2FCF91089580E073
:1045C000089580E00895CF93C82F8091A701882394
:1045D00019F0813049F043C0E0910C01F0910D01D8
:1045E00080818232F1F507C0E0910C01F0910D015C
:1045F0008081823249F48C2F0E94DF2281112CC0ED
:104600008C2F0E94BA1F29C08C2F0E94E122811199
:1046100023C0C431A9F018F4CB3029F018C0C93236
:1046200079F0C833A1F484E694E00E94B20587E5EE
:1046300094E00E94B2058FE294E00E94B2050CC0A3
:104640008BE194E00E94B2051092A7010CC089E1B1
:1046500094E00E94B20507C081E0817006C010920C
:10466000A70180E002C080E0F8CFCF9108950E94BA
:104670004B1F811102C00E942C1F0E94711F80934A
:10468000B80180FF02C0869501C080E00C941A0832
:104690008091B801982F969539F48170826081607D
:1046A0008093B8010E94751F80919F0180FF0FC009
:1046B0008091B80186951F928F9388EA9AE09F9324
:1046C0008F930E944B060F900F900F900F90809148
:1046D000B80186950C941A088091B801982F969588
:1046E00091F09158990F8170892B8093B8018E7F3A
:1046F00091E009F490E08091B80190FB80F98093FB
:10470000B8010E94751F80919F0180FF0FC08091AA
:10471000B80186951F928F9380E99AE09F938F93BB
:104720000E944B060F900F900F900F908091B80150
:1047300086950C941A088091B801982F909590FB5B
:1047400080F98093B8010E94751F80919F0180FFBE
:104750000FC08091B80181701F928F938AE79AE011
:104760009F938F930E944B060F900F900F900F9086
:104770008091B80180FF02C0869501C080E00C9452
:104780001A083091B801232F26952F5F2F77822F9B
:1047900090E0317002972CF4220F232B2093B80164
:1047A00002C03093B8018091B8018E7F91E009F486
:1047B00090E08091B80190FB80F98093B8010E944D
:1047C000751F80919F0180FF0FC08091B801869571
:1047D0001F928F9386E69AE09F938F930E944B06D9
:1047E0000F900F900F900F908091B80186950C94C8
:1047F0001A082091B801922F96959827990F822F29
:104800008170892B8093B8018E7F91E009F490E04C
:104810008091B80190FB80F98093B8010E94751FC8
:104820008091B80186950C941A08EE0FFF1F059031
:10483000F491E02D0994F999FECF92BD81BDF89ACB
:10484000992780B50895A8E1B0E042E050E00C94CB
:104850003E24262FF999FECF1FBA92BD81BD20BDFF
:104860000FB6F894FA9AF99A0FBE019608950E942D
:104870002924272F0C942A24DC01CB01FC01F9996F
:10488000FECF06C0F2BDE1BDF89A319600B40D929C
:0C48900041505040B8F70895F894FFCF55
:10489C0005560815095908E208AE080195013F367E
:0E48AC00208A0354033403D902F2020B0300E6
:00000001FF
