:100000000C949D050C94E1050C94E1050C94E1051C
:100010000C94E1050C94E1050C94E1050C94E105C8
:100020000C94E1050C94E1050C94C70E0C94990F07
:100030000C940D1E0C94E1050C94E1050C94E10563
:100040000C94E1050C94E1050C94E1050C94E10598
:100050000C94E1050C94741E0C94E1050C94E105DC
:100060000C94E1050C94E1050C94E1050C94E10578
:100070000C94E1050C94E1050C94E1050C94E10568
:100080000C94E1050C94E1050C94E1050C94E10558
:100090000C94E1050C94E1050C94E1050C94E10548
:1000A0000C94E1050C94E1050C94E105FE0F201081
:1000B0000B1120100B11621085100B11DA10ED10CE
:1000C000201420144E144E14A314DF14D016D0168E
:1000D000F714D016EE15EE15AA16D016D016BE16C9
:1000E00062A1260227022F023002048A028A360207
:1000F0003702041607090B0A1D1B06196405141A9A
:1001000008151C171E1F202123222E26242D2527EB
:100110003012182F0C13280F0D340E3331363811CE
:1001200010372B2C352A5829E0E3E1E0E2504F51FB
:1001300052006C6300556D5700C700000054580012
:10014000566D6EC8C02F305BC3C45EC16FC261897B
:1001500087853E3F403C4142914490466B47004377
:1001600065450048494A4B4C3D4D3B4E3AE5E6E477
:1001700000C5041607090B0A1D1B06196405141A8D
:1001800008151C171E1F202123222E26242D25276B
:100190003012182F0C13280F0D340E33313638114E
:1001A00010372B2C352A5829E0E3E1E0E2504F517B
:1001B00052006CA800556D570053000000545800C1
:1001C000566D6E67C0ACAAAB5CA9AE5F6F6061890B
:1001D00087853E3F403C4142914490466B470043F7
:1001E00065450048494A4B4C3D4D3B4E3AE5E6E4F7
:1001F00000C5041607090B0A1D1B06196405141A0D
:1002000008151C171E1F202123222E26242D2527EA
:100210003012182F0C13280F0D340E3331363811CD
:1002200010372B2C352A5829E0E3E1E0E2504F51FA
:1002300052006C6300556D57005300000054580085
:10024000566D6E6762ACAAAB5CA9AE5F6F606189E8
:1002500087853E3F403C4142914490466B47004376
:1002600065450048494A4B4C3D4D3B4E3AE5E6E476
:1002700000C50A0025303862003A20002530325887
:1002800000722F632030313233343536370A006143
:1002900064625F686F73745F6B62645F72656376DC
:1002A0003A204552524F52282564290A000A002557
:1002B000303458006164625F686F73745F6B6264AE
:1002C0005F726563763A20005D0A002564002000B5
:1002D0002564007C0025303258002000253032583B
:1002E000006164625F6D6F757365207261773A209B
:1002F0005B000A002530313662006164625F686F1E
:1003000073745F6D6F7573655F726563763A200015
:10031000646562756720656E61626C65642E0A00B3
:100320005B735D004B6579626F6172642073746109
:1003300072742E0A0055534220636F6E66696775AA
:100340007265642E0A005B575D005B535D005B5273
:100350005D005B445D005B435D002E034100440093
:10036000420020006B006500790062006F006100B0
:1003700072006400200063006F006E00760065006C
:10038000720074006500720000000E0374002E00FD
:100390006D002E006B002E0000000403090409020A
:1003A0007400040100A032090400000103010100EF
:1003B000092111010001223F000705810308000AFD
:1003C00009040100010301020009211101000122B9
:1003D0004D000705820308000A090402000103001A
:1003E00000000921110100012236000705830308DE
:1003F000000A0904030002030000000921110100A2
:1004000001222000070584032000010705040320C2
:1004100000011201100100000008EDFEDB0A0101DD
:10042000010200010631FF0974A1010975150025BB
:10043000FF9520750881020976150025FF95207526
:10044000089102C005010980A1018502160100265C
:10045000B7001A01002AB700751095018100C00588
:100460000C0901A1018503160100269C021A010056
:100470002A9C02751095018100C005010902A101A5
:100480000901A10005091901290515002501950596
:10049000750181029501750381010501093009315A
:1004A0001581257F95027508810609381581257FFC
:1004B000950175088106050C0A38021581257F957E
:1004C0000175088106C0C005010906A101050719CB
:1004D000E029E71500250195087501810295017550
:1004E00008810105081901290595057501910295F5
:1004F00001750391010507190029FF150025FF95D6
:100500000675088100C00A002530325820006B654E
:1005100079626F6172645F7265706F72743A200005
:100520000A0025303258006B6579626F6172645F32
:100530007365745F6C65643A2000290A00257500B4
:100540002F002575005D280025640020002564002B
:10055000200025640020002564007C0025303258EE
:10056000006D6F7573656B6579205B62746E7C7866
:100570002079207620685D287265702F61636C2970
:100580003A205B006D6B5F776865656C5F74696DC1
:10059000655F746F5F6D6178203D2025640A006D92
:1005A0006B5F776865656C5F6D61785F73706565BB
:1005B00064203D2025640A006D6B5F74696D655F82
:1005C000746F5F6D6178203D2025640A006D6B5F5C
:1005D0006D61785F7370656564203D2025640A0055
:1005E0006D6B5F696E74657276616C203D20256469
:1005F0000A006D6B5F64656C6179203D2025640A9B
:10060000006D6B5F776865656C5F74696D655F74BD
:100610006F5F6D6178203D2025640A006D6B5F7708
:100620006865656C5F6D61785F7370656564203DBA
:100630002025640A006D6B5F74696D655F746F5F80
:100640006D6178203D2025640A006D6B5F6D6178D7
:100650005F7370656564203D2025640A006D6B5FE3
:10066000696E74657276616C203D2025640A006DA8
:100670006B5F64656C6179203D2025640A000A0087
:10068000257500363A20776865656C5F74696D651D
:100690005F746F5F6D61783A20000A002575003540
:1006A0003A20776865656C5F6D61785F737065652A
:1006B000643A20000A00257500343A2074696D659B
:1006C0005F746F5F6D61783A20000A002575003312
:1006D0003A206D61785F73706565643A20000A00A6
:1006E000257500323A20696E74657276616C286DEA
:1006F00073293A20000A00257500313A2064656CA0
:100700006179282A31306D73293A20000A092D2099
:1007100056616C756573202D0A004D3E004D2564B1
:100720003E20003F007365742064656661756C74DB
:100730000A00433E200077686572652064656C742A
:10074000613A20637572736F723D25642C2077685F
:1007500065656C3D25640A53656520687474703A5C
:100760002F2F656E2E77696B6970656469612E6FD6
:1007700072672F77696B692F4D6F7573655F6B6556
:1007800079730A000A092D204D6F7573656B6579C1
:10079000202D0A4553432F713A09717569740A3146
:1007A0003A0964656C6179282A31306D73290A32FF
:1007B0003A09696E74657276616C286D73290A3323
:1007C0003A096D61785F73706565640A343A09743B
:1007D000696D655F746F5F6D61780A353A09776896
:1007E00065656C5F6D61785F73706565640A363A44
:1007F00009776865656C5F74696D655F746F5F6DBF
:1008000061780A0A703A097072696E742076616CB8
:100810007565730A643A0973657420646566617569
:100820006C74730A75703A092B310A646F776E3AEB
:10083000092D310A706775703A092B31300A7067DB
:10084000646F776E3A092D31300A0A7370656564FA
:10085000203D2064656C7461202A206D61785F738F
:1008600070656564202A2028726570656174202F88
:100870002074696D655F746F5F6D6178290A003F50
:10088000004D3E2000433E20004C25640A000A092A
:100890002D20436F6E736F6C65202D0A4553432FD7
:1008A000713A09717569740A6D3A096D6F757365EE
:1008B0006B65790A000A092D204D61676963202D57
:1008C0000A643A0964656275670A783A0964656280
:1008D0007567206D61747269780A6B3A09646562A4
:1008E0007567206B6579626F6172640A6D3A09649D
:1008F00065627567206D6F7573650A763A0976656E
:100900007273696F6E0A733A097374617475730A4E
:10091000633A09636F6E736F6C65206D6F64650A6F
:10092000302D343A096C61796572302D34284631A6
:10093000302D4634290A506175733A09626F6F741D
:100940006C6F616465720A003F0074696D65725F67
:10095000636F756E743A202530346C580A006B65ED
:1009600079626F6172645F69646C653A2025580A28
:10097000006B6579626F6172645F70726F746F6330
:100980006F6C3A2025580A00686F73745F6B657945
:10099000626F6172645F6C65647328293A20255820
:1009A0000A000A092D20537461747573202D0A0002
:1009B0004743433A20342E382E31204156522D4C95
:1009C0004942433A20312E382E3073766E204156FC
:1009D000525F415243483A20617672350A004F50C7
:1009E00054494F4E533A204C554641204D4F555394
:1009F000454B45592045585452414B455920434F8A
:100A00004E534F4C4520434F4D4D414E44203430C2
:100A100039360A004255494C443A2034353566642B
:100A200035312D6469727479202832303A32373A80
:100A30003131205365702032302032303135290A6F
:100A4000005649443A2030784645454428742E6D76
:100A50002E6B2E29205049443A20307830414442B0
:100A600028414442206B6579626F61726420636F34
:100A70006E76657274657229205645523A20307838
:100A8000303130310A00444553433A20636F6E766B
:100A900065727420414442206B6579626F617264B3
:100AA00020746F205553420A000A092D20566572A2
:100AB00073696F6E202D0A000A6D6F7573653A2099
:100AC0006F66660A000A6D6F7573653A206F6E0A6D
:100AD000000A6B6579626F6172643A206F66660A1C
:100AE000000A6B6579626F6172643A206F6E0A006A
:100AF0000A6D61747269783A206F66660A000A6D41
:100B000061747269783A206F6E0A000A64656275D2
:100B1000673A206F66660A000A64656275673A2064
:100B20006F6E0A000A0A626F6F746C6F616465729F
:100B30002E2E2E2000433E20000011241FBECFEF9A
:100B4000DAE0DEBFCDBF04B603FE24C08091DA0137
:100B50009091DB01A091DC01B091DD018730904BD9
:100B6000A740B04BB9F41092DA011092DB01109259
:100B7000DC011092DD0114BE84B7877F84BF88E159
:100B80000FB6F89480936000109260000FBEE0E012
:100B9000F8E3099511E0A0E0B1E0E8E1FDE402C06E
:100BA00005900D92A433B107D9F721E0A4E3B1E099
:100BB00001C01D92AA3DB207E1F70E94FD0B0C9403
:100BC0008A260C940000FF93EF93E0913401F0919A
:100BD0003501309709F00995EF91FF910895FC01D7
:100BE0008591803011F0EFDFFBCF0895FF27E0E221
:100BF00030E247FF0CC0419597FF09C0EDE26095D8
:100C0000709580959095611D711D811D911D27FF27
:100C100002C0219530E350E2AA27660F771F881F94
:100C2000991FAA1FA41710F0A41B63955A95A9F742
:100C3000AA3008F0A95FA05DAF93F3956115710527
:100C40008105910541F7ED3211F4EF93F395F21719
:100C500018F43F93F395FBCF8F91B5DFFA95E1F749
:100C60000895E991F9918591803021F0853219F04C
:100C7000AADFF9CF089520E0E89455915532C1F3E9
:100C8000503311F4689455915A3348F4505390F30B
:100C9000220F022E220F220F200D250FF4CF0EF46B
:100CA000219589919991533619F3533729F1533589
:100CB00059F1BC0188279927E8945C3621F4899181
:100CC000999168945591543639F446EF7EF077FF48
:100CD0000DC08FEF9FEF0AC055374AE039F0583505
:100CE00040E121F0523642E009F00895FF93EF937E
:100CF0007DDFEF91FF91B7CFFF93EF93FC018191DF
:100D00008030B9F360DFFBCFFF93EF9368DFF1CF63
:100D1000DF93CF93CDB7DEB72596A3DFCF91DF91D9
:100D20000895E72FF0E090E1899FE00DF11D112477
:100D300083E0EE0FFF1F8A95E1F7E60FF11DEE50FD
:100D4000FF4F84910895E82FF0E0EE0FFF1FE05A67
:100D5000F040859194910895282F2770E82FE6950B
:100D6000E695E695EF70F0E0E95CFE4F87FF0CC07A
:100D700081E090E0022E01C0880F0A94EAF7809586
:100D80009081892380830AC081E090E0022E01C017
:100D9000880F0A94EAF79081982B908381E08093E2
:100DA0004C0108950E946A092FEF83ED90E32150D2
:100DB00080409040E1F700C0000043E062E08BE239
:100DC0000E947409E7E3F1E0119221E0E734F207B1
:100DD000D9F78091BC0181608093BC0180E193E0F0
:100DE0000C94EF05CF93DF938FE79BEB0197F1F71F
:100DF00000C000000E947109EC01009711F481E02D
:100E0000C4C097FD05C08091470181608093470170
:100E1000D7FF05C0809147018E7F809347018D2FBA
:100E200099278F739927AE014F735527C6FF02C0CC
:100E300040545109D6FF02C0805491096091360197
:100E4000772767FD7095469F9001479F300D569F0D
:100E5000300D112421384FEF340714F421E83FEF0F
:100E600031952195310921384FEF340714F421E8E9
:100E70003FEF219520934801869F9001879F300D79
:100E8000969F300D112421388FEF380714F421E894
:100E90003FEF88279927821B930B81382FEF92070A
:100EA00014F481E89FEF8195809349018091BC0102
:100EB00083FF60C08AEF92E00E94EF05DF93CF933B
:100EC00084EF92E09F938F930E94880682EF92E0D6
:100ED0000E94EF0581EE92E00E94EF05209136011D
:100EE000822F992787FD90959F932F938CED92E009
:100EF0009F938F930E9488068AED92E00E94EF05EF
:100F0000809147011F928F9385ED92E09F938F937D
:100F10000E94880683ED92E00E94EF05209148012F
:100F2000822F992787FD90959F932F9380ED92E0D4
:100F30009F938F930E9488068EEC92E00E94EF05AB
:100F400020914901822F992787FD90959F932F9398
:100F50008BEC92E09F938F930E94880688EC92E03E
:100F60000E94EF058DB79EB744960FB6F8949EBFCA
:100F70000FBE8DBF87E491E00E9479118091360108
:100F800091E088300CF090E0890F80933601DF917A
:100F9000CF9108951F93CF93DF9310924C01C0918E
:100FA0000001D09101018FEF9FEF90930101809399
:100FB0000001CF3F8FEFD80749F48FE79BEB0197F4
:100FC000F1F700C000000E946D09EC018091BC01A6
:100FD00081FF18C0209709F442C084EB92E00E9480
:100FE000EF05DF93CF938FEA92E09F938F930E9458
:100FF00088068DEA92E00E94EF050F900F900F9007
:101000000F9002C0209759F1CF379FE7D90711F40D
:101010008FE705C0CF3F8FEFD80721F48FEF0E94F5
:10102000AC061FC0DF3F71F4DF93CF938FE892E0EF
:101030009F938F930E9488060F900F900F900F90B0
:101040008C2F10C08D2F0E94AC06CF3F51F0DC2FAB
:10105000CC27CF6FD0930101C093000102C080E084
:1010600001C081E0DF91CF911F910895E82FF0E05A
:10107000E95CFE4F208130E081E090E002C0880F03
:10108000991F6A95E2F72823392381E0232B09F47D
:1010900080E00895E82FF0E0E95CFE4F808108953C
:1010A000CF92DF92EF92FF920F931F93CF93DF9334
:1010B0008091BC0181FF35C081E892E00E94EF057C
:1010C00027E3E22E21E0F22EC0E0D0E03CE7C32E81
:1010D00032E0D32E04E712E0DF93CF93DF92CF927A
:1010E0000E94880689E792E00E94EF05F70181914E
:1010F0007F010E94BC1D1F928F931F930F930E942C
:10110000880682E792E00E94EF0521968DB79EB790
:1011100008960FB6F8949EBF0FBE8DBFC031D105A3
:10112000D9F6DF91CF911F910F91FF90EF90DF9053
:10113000CF90089580950C94A509509A83E091E092
:101140000197F1F700C0000050989AEB9A95F1F7DB
:1011500000C00895509A8AEB8A95F1F700C0509824
:1011600083E091E00197F1F700C000000895EF924D
:10117000FF920F931F93CF93DF93C0E0D0E000E87E
:1011800010E0E82EF12C98010C2E02C03595279521
:101190000A94E2F72E213F21232B19F00E94AA087E
:1011A00002C00E949D082196C830D10561F7DF91E9
:1011B000CF911F910F91FF90EF900895489B07C02A
:1011C00023E02A95F1F7000001970097B9F70895F9
:1011D000489907C023E02A95F1F70000019700978E
:1011E000B9F70895CF92DF92EF92FF920F931F937A
:1011F000CF93DF931F92CDB7DEB7F894509AE3EF09
:10120000FBE03197F1F700C0000089830E94AA0833
:1012100089818C600E94B7080E949D0884EF91E04C
:101220000E94E808892B21F4789482EE9FEF48C051
:1012300084EF91E00E94DE08892B21F4789480E00D
:1012400090E03EC021E1F22EC12CD12C32E8E32EF9
:1012500082E890E00E94E8088C01882359F19927E0
:101260000E94DE08882331F1CC0CDD1C9E2D901BE2
:10127000081B901718F46894C0F807C0F1E1FF123A
:1012800004C078948CEE9FEF1BC0FA9409F78FE5A9
:1012900091E00E94E808892B21F478948BEE9FEF6F
:1012A0000FC08BE590E00E94DE08892BB1F778949F
:1012B000C60106C078948F2D90E091958195910993
:1012C0000F90DF91CF911F910F91FF90EF90DF90E2
:1012D000CF90089558985098089580E20C94F208A1
:1012E000089580E30C94F208CF93DF9300D01F920F
:1012F000CDB7DEB7F894509AE3EFFBE03197F1F702
:1013000000C000004B836A8389830E94AA088981F8
:101310000E94B7080E949D088FE193E00197F1F7C2
:1013200000C000000E94AA086A81862F0E94B708A8
:101330004B81842F0E94B7080E949D0878940F90DB
:101340000F900F90DF91CF910895482F477060E084
:101350008AE20C9474098091580108959FB7F8941B
:1013600010924F019FBF9091D101943009F058C065
:101370009091E9009F702091EC0020FF02C020E8CE
:1013800001C020E0292B94E09093E9009091EB00BC
:1013900090FF43C09091EE0097FF3FC090914D01A8
:1013A000992321F09091E80095FF37C010924D01EC
:1013B00096E03091E80035FD15C03091D101343010
:1013C00061F53091EB0035FD28C0915021F481E0AA
:1013D00080934D0122C0EFE9FFE03197F1F700C0A3
:1013E0000000E7CF8093F1008091E80085FD0AC0FE
:1013F0008091E80080FFFCCF8091E8008E77809399
:10140000E80006C08FB7F89491E090934F018FBF2A
:101410002F702093E90080E008952F702093E90059
:101420008FEF0895CF93DF9300D01F92CDB7DEB733
:101430002091D101243019F523E029839B838A83ED
:101440002093E9008FEF9091E800815095FD06C050
:1014500095ED9A95F1F700008111F5CF8091E800A4
:1014600085FF0DC040E050E063E070E0CE010196E2
:101470000E94BA0C8091E8008E778093E8000F906C
:101480000F900F90DF91CF910895CF93DF9300D00D
:101490001F92CDB7DEB72091D101243021F522E093
:1014A00029839B838A8383E08093E9008FEF909167
:1014B000E800815095FD06C095ED9A95F1F7000082
:1014C0008111F5CF8091E80085FF0DC040E050E02C
:1014D00063E070E0CE0101960E94BA0C8091E800B2
:1014E0008E778093E8000F900F900F90DF91CF914F
:1014F00008952091D1012430F1F422E02093E900F5
:101500002FEF3091E800215035FD06C035ED3A95BA
:10151000F1F700002111F5CF2091E80025FF0BC065
:1015200040E050E065E070E00E94BA0C8091E80075
:101530008E778093E8000895CF93DF93EC0180913C
:10154000D101843039F581E08093E9008FEF9091EB
:10155000E800815095FD06C095ED9A95F1F70000E1
:101560008111F5CF8091E80085FF14C040E050E084
:1015700068E070E0CE010E94BA0C8091E8008E779E
:101580008093E80088E0FE01A0E5B1E001900D92B3
:101590008A95E1F7DF91CF91089586E593E00E9467
:1015A000EF058091D001811109C00E944C0E0E946C
:1015B000A90E8091E20084608093E200089582E5A4
:1015C00093E00E94EF051092D00108958EE493E01D
:1015D0000C94EF058AE493E00C94EF0586E493E025
:1015E0000E94EF050C940B1E80914E018F5F80933B
:1015F0004E0162E30E945026911135C010924E01B7
:1016000080914F01882379F18091D101843049F58F
:101610008091E9008F709091EC0090FF02C090E8FB
:1016200001C090E0982B84E08093E9008091EB006A
:1016300080FF14C08091EE0087FF10C08091E80009
:1016400085FF03C01092F100F9CF8091E80080FF80
:1016500005C08091E8008E778093E8009F7090939A
:10166000E90010924F01089542E061EC81E00E9490
:10167000C60D42E061EC82E00E94C60D42E061ECE2
:1016800083E00E94C60D46E261EC84E00C94C60D36
:101690008091D301833009F453C030F4813071F06C
:1016A000823009F491C008958A3009F47DC08B30EE
:1016B00009F45EC0893009F09FC020C08091D2013A
:1016C000813A09F099C08091E800877F8093E80013
:1016D0008091D6019091D701892B21F060E080E0C4
:1016E00090E003C068E080E591E070E00E94030DA7
:1016F0008091E8008B778093E80008958091D20173
:10170000813209F079C08091D6019091D701892B5F
:1017100009F072C08091E800877F8093E800809193
:10172000E80082FD05C08091D1018111F8CF64C02D
:101730008091F100809358018091E8008B7758C028
:101740008091D201813A09F057C08091D6019091E1
:10175000D701892B09F050C08091E800877F8093E2
:10176000E8008091E80080FFFCCF80910C013BC035
:101770008091D201813209F03FC08091D6019091D1
:10178000D701892BC9F58091E800877F8093E80015
:101790000E94FB0D9091D40181E0911101C080E085
:1017A00080930C010C94F1168091D201813221F5C5
:1017B0008091E800877F8093E8000E94FB0D809174
:1017C000D5018093590108958091D201813AA1F405
:1017D0008091E800877F8093E8008091E80080FF97
:1017E000FCCF809159018093F1008091E8008E77C1
:1017F0008093E8000C94FB0D089584B7877F84BF25
:1018000088E10FB6F89480936000109260000FBEDC
:1018100090E080E80FB6F8948093610090936100A7
:101820000FBE0E94B1110E944C0E0E94A90E809121
:10183000E20084608093E2008EEA99E00E94B71D86
:1018400078948091D1018430E1F785E393E00E94A0
:10185000EF050E94B31182E091E00E94231184E21F
:1018600093E00E94EF058091D101853089F480E2F8
:1018700093E00E94EF050E94CE1D8091CF01882346
:1018800091F30E94F61D882371F30E94A40CEBCF04
:101890000E94E111E8CF292F332723303105A9F029
:1018A0006CF42130310509F442C02230310509F0D1
:1018B00043C084E790E02EE933E042C02132310595
:1018C000C9F02232310519F137C0992781309105CD
:1018D00041F08230910541F0892B71F5EAE9F3E09E
:1018E00005C0EAE8F3E002C0EAE5F3E0849190E0A5
:1018F0009F0126C0643000F5E62FF0E0EE0FFF1FD9
:10190000EF5DFE4F2081318189E090E019C06430A5
:1019100098F4E62FF0E0DF01AA0FBB1FA75EBE4FD1
:101920002D913C91EB5EFE4F808190E009C082E1F9
:1019300090E022E134E004C080E090E020E030E07C
:10194000FA0131832083089580E189BD82E189BD58
:1019500009B400FEFDCF8091D8008F7D8093D80020
:101960008091E00082608093E0008091E00081FD42
:10197000FCCF0895CF92DF92EF92FF920F931F93C7
:10198000CF93DF937C018B01EA010E941C0E811131
:1019900031C0209731F088819981081B190BE80E1E
:1019A000F91EC12CD12C0115110519F18091E80007
:1019B00085FD14C08091E8008E778093E800209721
:1019C00041F0888199818C0D9D1D9983888385E0E4
:1019D00011C00E941C0E882331F30CC0F7018191C5
:1019E0007F018093F10001501109FFEFCF1ADF0A48
:1019F000DACF80E0DF91CF911F910F91FF90EF90B0
:101A0000DF90CF9008952091D8013091D901261709
:101A1000370748F06115710539F42091E8002E77F9
:101A20002093E80001C0B901FC0120E061157105B7
:101A3000B9F18091D101882309F440C0853009F4BF
:101A40003FC08091E80083FD3DC08091E80082FFA7
:101A500006C08091E80082FF26C080E00895809152
:101A6000E80080FFE3CF2091F3008091F20090E046
:101A7000922B6115710551F08830910538F4219150
:101A80002093F100615071090196F3CF21E008978E
:101A900009F020E08091E8008E778093E800C6CFBF
:101AA0002111C7CFD6CF8091D101882339F085305D
:101AB00039F08091E80083FFCCCF04C082E0089524
:101AC00083E0089581E008952091D8013091D901F3
:101AD0002617370748F06115710539F42091E800A1
:101AE0002E772093E80001C0B901FC0120E06115C8
:101AF0007105C1F18091D101882309F441C085307D
:101B000009F440C08091E80083FD3EC08091E80068
:101B100082FF06C08091E80082FF27C080E0089520
:101B20008091E80080FFE3CF2091F3008091F200E4
:101B300090E0922B6115710559F08830910540F4C1
:101B400024912093F1003196615071090196F2CFF2
:101B500021E0089709F020E08091E8008E778093DB
:101B6000E800C5CF2111C6CFD5CF8091D101882300
:101B700039F0853039F08091E80083FFCBCF04C085
:101B800082E0089583E0089581E00895982F9730CA
:101B900058F59093E900981739F07091EC00209176
:101BA000ED005091F00003C0242F762F50E021FF6C
:101BB00019C03091EB003E7F3093EB003091ED0087
:101BC0003D7F3093ED003091EB0031603093EB00BE
:101BD0007093EC002093ED005093F0002091EE0004
:101BE00027FF07C09F5FD3CF8F708093E90081E00C
:101BF000089580E008958091D20187FD05C080910D
:101C0000E80080FF0EC012C08091E80082FD05C090
:101C10008091D1018111F8CF08958091E8008B77F0
:101C200008C08091D1018111EACF08958091E80028
:101C30008E778093E80008958091E4009091E5000C
:101C400045E62091EC0020FF21C02091E80020FD16
:101C500021C02091D101222389F0253089F02091E3
:101C6000EB0025FD0FC02091E4003091E50028171E
:101C7000390739F3415041F0C901E3CF82E00895BB
:101C800083E0089581E0089584E008952091E800BC
:101C900022FFDFCF80E008950E94BA0E0E94C20E9C
:101CA000E0EEF0E0808181608083E8EDF0E080810B
:101CB0008F77808319BCA7EDB0E08C918E7F8C93D9
:101CC00080818F7E80831092D00108950F931F939F
:101CD000CF93DF930E94BA0E0E94C20EC8EDD0E0EF
:101CE00088818F77888388818068888388818F7DC9
:101CF000888319BC1092D1011092CD011092CF01AE
:101D00001092CE0100EE10E0F80180818B7F80837D
:101D100088818160888342E060E080E00E94C60D97
:101D2000E1EEF0E080818E7F8083E2EEF0E0808162
:101D300081608083808188608083F80180818E7FCC
:101D40008083888180618883DF91CF911F910F917B
:101D50000895E8EDF0E080818F7E8083E7EDF0E08C
:101D600080818160808384E082BF81E08093D001A4
:101D70000C94660EE8EDF0E080818E7F80831092F7
:101D8000E20008951092DA001092E10008951F9287
:101D90000F920FB60F9211242F933F934F935F939F
:101DA0006F937F938F939F93AF93BF93EF93FF9323
:101DB0008091E10082FF0BC08091E20082FF07C0AA
:101DC0008091E1008B7F8093E1000E94F40A809172
:101DD000DA0080FF1FC08091D80080FF1BC0809177
:101DE000DA008E7F8093DA008091D90080FF0DC0E9
:101DF00080E189BD82E189BD09B400FEFDCF81E0AB
:101E00008093D1010E94CD0A05C019BC1092D10166
:101E10000E94DF0A8091E10080FF19C08091E200FA
:101E200080FF15C08091E2008E7F8093E200809158
:101E3000E20080618093E2008091D800806280930C
:101E4000D80019BC85E08093D1010E94EA0A8091F4
:101E5000E10084FF30C08091E20084FF2CC080E16B
:101E600089BD82E189BD09B400FEFDCF8091D80013
:101E70008F7D8093D8008091E1008F7E8093E10078
:101E80008091E2008F7E8093E2008091E200816089
:101E90008093E2008091CD01882311F084E007C097
:101EA0008091E30087FF02C083E001C081E080935E
:101EB000D1010E94EE0A8091E10083FF29C0809148
:101EC000E20083FF25C08091E100877F8093E100DD
:101ED00082E08093D1011092CD018091E1008E7F4C
:101EE0008093E1008091E2008E7F8093E2008091F8
:101EF000E20080618093E20042E060E080E00E94C6
:101F0000C60D8091F00088608093F0000E94E60A80
:101F1000FF91EF91BF91AF919F918F917F916F91C1
:101F20005F914F913F912F910F900FBE0F901F9097
:101F300018951F920F920FB60F9211242F933F9373
:101F40004F935F936F937F938F939F93AF93BF93C1
:101F5000CF93EF93FF93C091E900CF708091EC0095
:101F60001092E9008091F000877F8093F0007894D0
:101F70000E94D50F1092E9008091F0008860809354
:101F8000F000C093E900FF91EF91CF91BF91AF9125
:101F90009F918F917F916F915F914F913F912F9181
:101FA0000F900FBE0F901F9018951F93CF93DF9344
:101FB000CDB7DEB7AA970FB6F894DEBF0FBECDBF80
:101FC000E2EDF1E08091F100819321E0EA3DF2073A
:101FD000C9F70E94480B8091E80083FF1CC1209143
:101FE000D2013091D301832F90E08A30910508F01F
:101FF00012C1FC01EA5AFF4F0C947026203881F080
:10200000223809F008C18091D6018F708093E900D1
:102010008091EB0085FB882780F91092E90006C0CB
:102020008091CE019091CF01911182609091E80052
:10203000977F9093E8008093F1001092F100C5C063
:10204000822F8D7F09F0E7C0222319F0223061F042
:10205000E2C08091D401813009F0DDC0333009F055
:1020600080E08093CF0128C08091D401811124C0E9
:102070002091D6012F7009F4CEC02093E900809101
:10208000EB0080FF19C08091EB00333011F48062C7
:1020900011C080618093EB0081E090E0022E01C0CE
:1020A000880F0A94EAF78093EA001092EA00809180
:1020B000EB0088608093EB001092E9008091E800CB
:1020C000877F86C02111A7C01091D4011F7780910E
:1020D000E3008078812B8093E3008091E800877F84
:1020E0008093E8000E94FB0D8091E80080FFFCCF08
:1020F0008091E30080688093E300112311F083E076
:1021000001C082E08093D10186C02058223008F0BF
:1021100082C08091D4019091D5018C3D23E092073B
:1021200079F583E08A838AE289834FB7F894DE01E8
:10213000139620E03EE051E2E32FF0E05093570089
:10214000E49120FF03C0E295EF703F5FEF708E2FA8
:1021500090E0EA3010F0C79601C0C0968D939D9331
:102160002F5F243149F74FBF8091E800877F80932C
:10217000E8006AE270E0CE0101960E94030D14C0EF
:10218000AE014F5F5F4F6091D6010E944B0C0097EC
:1021900009F441C02091E800277F2093E800BC01AA
:1021A00089819A810E94640D8091E8008B778093E9
:1021B000E80031C0203879F58091E800877F80936E
:1021C000E8008091CD018093F1008091E8008E7746
:1021D0008093E8000E94FB0D1EC021111CC090914D
:1021E000D4019230C0F48091E800877F8093E800AA
:1021F0009093CD010E94FB0D8091CD01811104C00F
:102200008091E30087FF02C084E001C081E08093F9
:10221000D1010E94340B8091E80083FF0AC08091B5
:10222000E800877F8093E8008091EB0080628093D4
:10223000EB00AA960FB6F894DEBF0FBECDBFDF91BC
:10224000CF911F91089590935F0180935E0108954F
:10225000E0915E01F0915F01309721F00190F081F3
:10226000E02D099480E00895FF920F931F93CF9380
:10227000DF938C01E0915E01F0915F01309799F15D
:102280000280F381E02D09958091BC0182FF2BC073
:1022900080FF04C08EE095E00E94EF05E80188E031
:1022A000F82E08E015E08091BC0180FF0BC088810A
:1022B0001F928F931F930F930E9488060F900F9089
:1022C0000F900F90FA942196F110EDCF8091BC0100
:1022D00080FF09C086E095E0DF91CF911F910F91BB
:1022E000FF900C94EF05DF91CF911F910F91FF901C
:1022F0000895E0915E01F0915F01309721F0048034
:10230000F581E02D0994089520915C0130915D01E3
:102310008217930771F090935D0180935C01E091C7
:102320005E01F0915F01309721F00680F781E02D8A
:102330000994089520915A0130915B018217930707
:1023400071F090935B0180935A01E0915E01F091EE
:102350005F01309721F00084F185E02D0994089504
:1023600008950C94B0110E94361E0E94D2060C945F
:102370007009CF93C82F8091BC0182FF1EC080FFDF
:1023800004C087E295E00E94EF058091BC0180FFC8
:102390000CC01F92CF9322E235E03F932F930E940F
:1023A00088060F900F900F900F908091BC0180FFD6
:1023B00004C080E295E00E94EF058C2FCF910C9431
:1023C0009A08CF92DF92EF92FF920F931F93CF93D1
:1023D000DF93CDB7DEB72B970FB6F894DEBF0FBEF5
:1023E000CDBF0E94CA0731E6E32E31E0F32E00E0B4
:1023F00010E0C02E802F0E944A08F701D1907F0183
:10240000D826B1F40F5F1F4F0031110591F78FEF00
:1024100089838A831B820E943F1E8160782F9D835F
:102420008C8349815A816B818D810E94861241C0C3
:102430009091BC0191FF04C08B870E9450088B854E
:1024400020E030E04D2D50E0922FBA01022E02C064
:10245000759567950A94E2F760FF25C02E83CF82B9
:10246000EE24E394F12C02C0EE0CFF1C9A95E2F7E7
:1024700090E08E219F2121E0892B09F420E028871C
:102480000E943F1E8160782F9A8789874E815F81E5
:1024900068858A850E948612F801EF59FE4F808177
:1024A0008E25808306C02F5F3F4F2830310561F6AF
:1024B000A9CF0E94B7200E94F206109160010E94ED
:1024C00028111817A1F00E942811809360012B9603
:1024D0000FB6F894DEBF0FBECDBFDF91CF911F9135
:1024E0000F91FF90EF90DF90CF900C94B9112B9645
:1024F0000FB6F894DEBF0FBECDBFDF91CF911F9115
:102500000F91FF90EF90DF90CF900895CF93DF93DE
:10251000CDB7DEB72B970FB6F894DEBF0FBECDBF99
:102520004F83588769877A878B87DE01119686E00B
:10253000FD0111928A95E9F785E0FE013796019039
:102540000D928A95E1F749815A816B817C818D8159
:102550009E810E94BD192B960FB6F894DEBF0FBE68
:10256000CDBFDF91CF910895CF93C82F882309F471
:10257000C1C0823859F40E94281181FDBBC089E393
:102580000E94581C0E94D31C89E30CC0833879F444
:102590000E94281180FDAEC083E50E94581C0E9455
:1025A000D31C83E50E94791CCF910C94D31C8438F2
:1025B00059F40E94281182FD9DC087E40E94581C96
:1025C0000E94D31C87E4EECF8CEF8C0F813A48F445
:1025D0008C2F0E94DE2381118DC08C2F0E94581CED
:1025E000E3CF80E28C0F883048F4C77081E001C0EF
:1025F000880FCA95EAF70E949A1CD6CF8BE58C0FFC
:10260000833078F4C53A29F0C63A31F482E890E094
:1026100005C081E890E002C083E890E0CF910C947F
:10262000841188E58C0F833108F064C0C83A39F111
:10263000C93A41F1CA3A49F1CB3A51F1CC3A59F190
:10264000CD3A61F1C03B69F1CE3A71F1CF3A79F1FF
:10265000C13B81F1C23B89F1C33B91F1C43B99F18C
:10266000C53BA1F1C63BA9F1C73BB1F1C83BB9F1EC
:10267000C93BC1F1CA3BC9F58AE292E038C082EE9B
:1026800090E035C089EE90E032C08AEE90E02FC035
:1026900085EB90E02CC086EB90E029C087EB90E0C2
:1026A00026C08CEC90E023C08DEC90E020C083E845
:1026B00091E01DC08AE891E01AC082E991E017C05C
:1026C00084E991E014C081E292E011C083E292E0DB
:1026D0000EC084E292E00BC085E292E008C086E280
:1026E00092E005C087E292E002C080E090E0CF91E6
:1026F0000C949A11CF910895882309F44BC0823825
:1027000059F40E94281181FF45C089E30E94581C9A
:102710000E94D31C89E30CC0833871F40E942811F5
:1027200080FF38C083E50E94581C0E94D31C83E5BB
:102730000E94791C0C94D31C843859F40E942811EF
:1027400082FF28C087E40E94581C0E94D31C87E4A3
:10275000EFCF9CEF980F913A58F390E2980F983092
:1027600050F4877091E001C0990F8A95EAF7892F9C
:102770000E94A01CDFCF9BE5980F933020F480E0EF
:1027800090E00C948411885A833120F480E090E02A
:102790000C949A110895882321F00E949A1C0C949D
:1027A000D31C0895882321F00E94A01C0C94D31CF4
:1027B0000895CF92DF92EF92FF920F931F93CF93E2
:1027C000DF93CDB7DEB728970FB6F894DEBF0FBE04
:1027D000CDBF8C0185E0F801DE01119601900D92CC
:1027E0008A95E1F7F80140813181F28025812295B7
:1027F0002F7083819481892B31F03F3F31F481E048
:102800004F3F19F403C081E001C080E080FDC8C2E1
:1028100049833A8389819A812F830E94161C9E8363
:1028200088870E94151C0E94E81A4E81E42FE295C9
:10283000EF70F0E0E05AFF4F2F8168850C9470260E
:10284000842F807F142F1F70882311F01295107F22
:10285000FF2059F0112309F458C2812F68870E9484
:10286000AA1C0E94D31C688550C2862F0E947C132C
:10287000112309F495C2812F0E94B01C28960FB62F
:10288000F894DEBF0FBECDBFDF91CF911F910F91A6
:10289000FF90EF90DF90CF900C94D31C342F307FBB
:1028A000842F8F70303211F08295807F662319F06B
:1028B000613009F12AC0FF20A1F0222381F12130EB
:1028C00071F528960FB6F894DEBF0FBECDBFDF912D
:1028D000CF911F910F91FF90EF90DF90CF900C94CC
:1028E000BA1C222319F0213009F45AC28E830E94A7
:1028F000BD1C8E818EC1FF2021F0263008F050C211
:102900000EC0253008F04CC284C1FF20C1F0222344
:1029100031F0F801958190FFF8C19F70958328965A
:102920000FB6F894DEBF0FBECDBFDF91CF911F91E0
:102930000F91FF90EF90DF90CF900C94CB13222358
:1029400009F467C1F6C1242F26952695237030E03F
:102950002115310521F021303105C9F021C2FF20B8
:1029600021F0862F942F937002C080E090E028968B
:102970000FB6F894DEBF0FBECDBFDF91CF911F9190
:102980000F91FF90EF90DF90CF900C948411FF2077
:1029900021F0862F942F937002C080E090E028965B
:1029A0000FB6F894DEBF0FBECDBFDF91CF911F9160
:1029B0000F91FF90EF90DF90CF900C949A11862F9B
:1029C000FF2019F00E943D1F02C00E94A51F2896FB
:1029D0000FB6F894DEBF0FBECDBFDF91CF911F9130
:1029E0000F91FF90EF90DF90CF900C942A20842FCE
:1029F000837009F076C0F110D3C1262F2295269559
:102A00002770220F220F862F8F70C82ED12CE12C19
:102A1000F12C022E04C0CC0CDD1CEE1CFF1C0A9411
:102A2000D2F764FF10C06FE070E080E090E004C077
:102A3000660F771F881F991F2A95D2F760957095AA
:102A40008095909503C060E070E0CB01242F26951F
:102A500026952370422F50E042305105D1F043308B
:102A6000510559F16C297D298E299F294130510545
:102A700041F128960FB6F894DEBF0FBECDBFDF91AF
:102A8000CF911F910F91FF90EF90DF90CF900C941A
:102A90000D1B6C297D298E299F2928960FB6F89445
:102AA000DEBF0FBECDBFDF91CF911F910F91FF9081
:102AB000EF90DF90CF900C94271B0E940D1BC70155
:102AC000B60128960FB6F894DEBF0FBECDBFDF91DA
:102AD000CF911F910F91FF90EF90DF90CF900C94CA
:102AE000F31AFF2019F0842F817001C08695882386
:102AF00009F456C1262F229526952770220F220F02
:102B0000862F8F70C82ED12CE12CF12C022E04C000
:102B1000CC0CDD1CEE1CFF1C0A94D2F764FF10C025
:102B20006FE070E080E090E004C0660F771F881FC0
:102B3000991F2A95D2F7609570958095909503C05E
:102B400060E070E0CB01242F269526952370422F5C
:102B500050E042305105D1F04330510559F16C2914
:102B60007D298E299F294130510541F128960FB6C4
:102B7000F894DEBF0FBECDBFDF91CF911F910F91B3
:102B8000FF90EF90DF90CF900C94E11B6C297D2992
:102B90008E299F2928960FB6F894DEBF0FBECDBFB1
:102BA000DF91CF911F910F91FF90EF90DF90CF9029
:102BB0000C94FB1B0E94E11BC701B60128960FB6BF
:102BC000F894DEBF0FBECDBFDF91CF911F910F9163
:102BD000FF90EF90DF90CF900C94C71B603F49F1BE
:102BE00018F4603E48F48CC0623F09F451C0E0F133
:102BF000633F09F461C084C0162F1F70842F8F714A
:102C0000FF2021F00E94601B812F89CE0E94811B32
:102C1000812F28960FB6F894DEBF0FBECDBFDF918F
:102C2000CF911F910F91FF90EF90DF90CF900C9478
:102C3000D213FF20A9F0253008F0B2C0842F8F7185
:102C400028960FB6F894DEBF0FBECDBFDF91CF91AF
:102C50001F910F91FF90EF90DF90CF900C94A61BE7
:102C6000263008F09DC0EACFFF20A1F0842F8F719D
:102C700028960FB6F894DEBF0FBECDBFDF91CF917F
:102C80001F910F91FF90EF90DF90CF900C94601BFD
:102C9000FF2061F3842F8F7128960FB6F894DEBF62
:102CA0000FBECDBFDF91CF911F910F91FF90EF909D
:102CB000DF90CF900C94811BFF2091F0842F8F71B7
:102CC00028960FB6F894DEBF0FBECDBFDF91CF912F
:102CD0001F910F91FF90EF90DF90CF900C944B1BC2
:102CE00028960FB6F894DEBF0FBECDBFDF91CF910F
:102CF0001F910F91FF90EF90DF90CF900C94411BAC
:102D0000FF20A1F0222309F4B1CF862F28960FB619
:102D1000F894DEBF0FBECDBFDF91CF911F910F9111
:102D2000FF90EF90DF90CF900C94B412222309F41F
:102D3000B1CF862F28960FB6F894DEBF0FBECDBF59
:102D4000DF91CF911F910F91FF90EF90DF90CF9087
:102D50000C947C134F70C8010E94F91C28960FB682
:102D6000F894DEBF0FBECDBFDF91CF911F910F91C1
:102D7000FF90EF90DF90CF900C946A1A4F70C801CB
:102D800028960FB6F894DEBF0FBECDBFDF91CF916E
:102D90001F910F91FF90EF90DF90CF900C94FC1C4F
:102DA00028960FB6F894DEBF0FBECDBFDF91CF914E
:102DB0001F910F91FF90EF90DF90CF9008950E94A8
:102DC000B71C0E948C1C0E94D31C0E9458210E9498
:102DD0002A2080E090E00E94841180E090E00C9432
:102DE0009A110E94A71C0C94DF160E94161C292F12
:102DF00022952F7030E02C3031054CF42A3031050B
:102E00006CF4225031092230310590F407C02C3087
:102E1000310551F02F30310539F00AC0803E10F0F5
:102E2000803F31F481E0089593FB882780F908956D
:102E300080E00895CF93DF9300D000D01F92CDB7EC
:102E4000DEB70F900F900F900F900F90DF91CF9102
:102E50000895CF93DF9300D000D000D0CDB7DEB778
:102E600026960FB6F894DEBF0FBECDBFDF91CF918F
:102E700008951F93CF93DF93C091710116E0809165
:102E80007201C81799F0D0E01C9FF0011D9FF00D52
:102E90001124ED58FE4F40815181628173818481FC
:102EA00095810E9429172196C770E9CFDF91CF91B4
:102EB0001F9108954091A3015091A4016091A50133
:102EC0007091A6018091A7019091A8010C942917F7
:102ED000CF938091A80182958F7009F05FC0809197
:102EE000A501882309F45AC020917101A0917201B3
:102EF0006091A3017091A4018091A6019091A70116
:102F000031E06F3F09F030E0B32FC6E02A1709F433
:102F100045C0009721F07F3F21F44B2F03C041E0D3
:102F200001C040E030E040FD35C0C29FF001C39FCA
:102F3000F00D1124ED58FE4F418174132BC04081D8
:102F4000641328C04281411125C043815481481730
:102F5000590710F441505109481B590B483C510581
:102F6000C8F48091A8018F7080618093A80186E0E9
:102F7000829FF001839FF00D1124E858FE4F80815D
:102F80008F708061808383EA91E00E94D913CF9192
:102F90000C9439172F5F3F4F2770B8CFCF9108950A
:102FA000CF92DF92EF92FF920F931F93CF93DF9315
:102FB000CDB7DEB762970FB6F894DEBF0FBECDBFB8
:102FC0008C0185E0F801DE011D9601900D928A9535
:102FD000E1F7D8014C9111965C91119712966C9182
:102FE00012971396ED90FC9014977091A301E091C5
:102FF000A4012091A6013091A7012115310531F0DE
:10300000EF3F31F481E07F3F19F403C081E001C05C
:1030100080E0B82FB170CB2E80FD6CC1D090A5019F
:10302000DD2009F4F5C0F091A801E216F30638F0AE
:10303000C701821B930B883C910548F09BC02095EB
:1030400030952E0D3F1D283C310508F093C08F2F81
:10305000807F09F052C0E51314C0741312C0D62E3D
:1030600061110FC0FF70F061F093A8010E945A1720
:1030700083EA91E00E94D9138091A801F801858329
:103080006CC1EF2831F05F3F31F481E04F3F19F41C
:1030900003C081E001C080E080FD03C081E086279D
:1030A00001C080E0F82FF170FF2E80FF1CC08091DE
:1030B00071012091720136E0821709F428C190E075
:1030C000389FF001399FF00D1124ED58FE4F7181AA
:1030D000571306C07081471303C07281671303C082
:1030E00001968770E9CFD62E662309F436C1809108
:1030F000A80181608093A80153C0E51308C0741330
:1031000006C0611104C0D8011596FC93AEC04D876E
:103110005E878D859E856A8B0E94F5166A89882355
:1031200029F1D62E662311F12091A801822F8295D4
:103130008F7090E002970CF460C08091A301909191
:10314000A40198878F831986FB86EA862C87CE0197
:10315000079651C0E51731F14D875E878D859E85B5
:103160006A8B0E94F5166A8981112EC0C8010E94DF
:10317000D913A4C08F2F807F69F77E2DF98AE88A42
:1031800089890E941A1783EA91E00E94D913E3EA21
:10319000F1E086E0DF011D928A95E9F70E945A1757
:1031A000D12CDBC07413D8CF6111D6CFD8011596BE
:1031B000FC93C8010E94D913E3EAF1E086E0DF0145
:1031C0001D928A95E9F7C9C0D62E662379F220911F
:1031D000A801822F82958F7090E0029774F0809101
:1031E000A3019091A4019A8389831B82FD82EC82C2
:1031F0002E83CE0101960E94D91386E0F801A3EA3E
:10320000B1E001900D928A95E1F70E9468176FC0B6
:10321000E216F30628F0C701821B930B9C0104C041
:10322000209530952E0D3F1D283C310508F052C0E9
:10323000D62E662309F49ACFE5132CC074132AC046
:103240008091A80180FD1DC0982F92959F70C9F0B4
:10325000D80115968C9315979F3039F09F5F929502
:10326000907F8F70892B15968C93C8010E94D9137B
:1032700086E0F801A3EAB1E001900D928A95E1F7AA
:1032800036C086E0F801A3EAB1E001900D928A957C
:10329000E1F763C04D875E878D859E850E94F51698
:1032A000882379F086E0F801A3EAB1E001900D925D
:1032B0008A95E1F70E9468170E945A17DD24D3947B
:1032C0004CC08091A80181608093A801C8010E9430
:1032D000D91343C07E2DF98AE88A89890E941A177A
:1032E000E3EAF1E086E0DF011D928A95E9F70E94AA
:1032F0005A1733C0662309F439CF4D875E878D8511
:103300009E850E94F516882309F430CFCBCF4D87D8
:103310005E878D859E850E94161C292F22952F7011
:1033200030E0223031052CF49F7041F0811106C04D
:103330000CC0243031052CF49F7049F4805E883035
:1033400020F0C8010E94D913CF2CDC2C06C0D80174
:1033500015969C91907F91F7F8CF8D2D62960FB6C0
:10336000F894DEBF0FBECDBFDF91CF911F910F91BB
:10337000FF90EF90DF90CF9008951F93CF93DF934E
:10338000CDB7DEB72C970FB6F894DEBF0FBECDBF1A
:103390004F83588769877A878B879C87CE010796EA
:1033A0000E94D0178823C1F02F8138858A859B859C
:1033B000892B31F03F3F11F080E003C02F3FE1F750
:1033C00081E0811147C04F81588569857A858B8559
:1033D0009C850E9429173EC086E0FE013796DE01DB
:1033E000119601900D928A95E1F7FF81E8854A8553
:1033F0005B854115510531F0EF3F31F481E0FF3F2E
:1034000019F403C081E001C080E080FD23C0209159
:10341000720130E0C90101968770992760917101AE
:1034200070E086179707F1F1F983EA835D834C8397
:1034300096E0929FD001939FB00D1124AD58BE4FDE
:10344000FE01319601900D929A95E1F780937201F9
:103450000E94391716E080917101909172018917CD
:1034600079F1189FC00111248D589E4F0E94D017EA
:10347000882331F1E09171011E9FF0011124ED5874
:10348000FE4F4081518162817381848195810E94C8
:1034900029178091710190E0019687709927809398
:1034A0007101D9CF0E94F116109272011092710130
:1034B000E3EAF1E086E0DF011D928A95E9F7CACFE1
:1034C0002C960FB6F894DEBF0FBECDBFDF91CF9123
:1034D0001F910895EF92FF920F931F93CF93DF9365
:1034E000FC01009709F46DC0F12CEE24E394EF0188
:1034F00021968491843740F4843008F053C08130A1
:1035000081F0823021F15DC0853709F445C0B0F10A
:103510009CE7980F903708F054C08F770E947C1377
:1035200043C08F010E5F1F4FFE01849190E2980F00
:10353000983050F48770FE2D01C0FF0F8A95EAF78E
:103540008F2F0E94AA1C15C00E94B41212C08F01B6
:103550000E5F1F4FFE01849190E2980F983058F44F
:103560008770FE2D01C0FF0F8A95EAF78F2F0E940A
:10357000B01CE80119C00E947C13FBCFCF0102965A
:10358000FE01C491CC2361F0EFE9FFE03197F1F740
:1035900000C00000C150F6CFCF010296FE01F490AA
:1035A000EC0102C00E94B4128F2D882341F0EFE994
:1035B000FFE03197F1F700C000008150F6CFFE0127
:1035C00096CFDF91CF911F910F91FF90EF900895CB
:1035D00008956093AD017093AE018093AF01909315
:1035E000B0010C94DF160F931F930091AD01109161
:1035F000AE012091AF013091B001062B172B282B83
:10360000392B0093AD011093AE012093AF0130939D
:10361000B0011F910F910C94DF160F931F9300912F
:10362000AD011091AE012091AF013091B0010623A0
:103630001723282339230093AD011093AE01209363
:10364000AF013093B0011F910F910C94DF160F93CF
:103650001F930091AD011091AE012091AF01309107
:10366000B00106271727282739270093AD011093AB
:10367000AE012093AF013093B0011F910F910C94D4
:10368000DF161092A9011092AA011092AB011092BC
:10369000AC010C94DF1641E050E060E070E004C043
:1036A000440F551F661F771F8A95D2F74093A901D3
:1036B0005093AA016093AB017093AC010C94DF1698
:1036C00041E050E060E070E004C0440F551F661F09
:1036D000771F8A95D2F78091A9019091AA01A091B4
:1036E000AB01B091AC01842B952BA62BB72B80930B
:1036F000A9019093AA01A093AB01B093AC010C94E3
:10370000DF1641E050E060E070E004C0440F551F58
:10371000661F771F8A95D2F74095509560957095F2
:103720008091A9019091AA01A091AB01B091AC0147
:1037300084239523A623B7238093A9019093AA01FC
:10374000A093AB01B093AC010C94DF1641E050E0C4
:1037500060E070E004C0440F551F661F771F8A9514
:10376000D2F78091A9019091AA01A091AB01B091EB
:10377000AC0184279527A627B7278093A9019093AA
:10378000AA01A093AB01B093AC010C94DF160F9388
:103790001F930091A9011091AA012091AB013091D2
:1037A000AC01062B172B282B392B0093A901109362
:1037B000AA012093AB013093AC011F910F910C949F
:1037C000DF160F931F930091A9011091AA01209178
:1037D000AB013091AC010623172328233923009332
:1037E000A9011093AA012093AB013093AC011F9162
:1037F0000F910C94DF160F931F930091A901109164
:10380000AA012091AB013091AC0106271727282788
:1038100039270093A9011093AA012093AB0130939B
:10382000AC011F910F910C94DF160895CF92DF9297
:10383000EF92FF920F931F93CF93DF93EC01C09011
:10384000AD01D090AE01E090AF01F090B001809159
:10385000A9019091AA01A091AB01B091AC01C82A35
:10386000D92AEA2AFB2A0FE110E0B701A601002EAF
:1038700004C076956795579547950A94D2F740FF0F
:1038800007C0BE01802F0E94FD1C8130910539F4D4
:103890000150110950F7BE0180E00E94FD1CDF912C
:1038A000CF911F910F91FF90EF90DF90CF900895EF
:1038B00040910D0150910E0120E030E09FEFFA01A0
:1038C000E20FF31F6281681799F09F3F19F46111AD
:1038D00001C0922F2F5F3F4F2630310581F79F3F68
:1038E00039F0FA01E90FF11D97FDFA9582830895E9
:1038F000089540910D0150910E0120E030E0FA0151
:10390000E20FF31F9281981301C012822F5F3F4F85
:1039100026303105A1F7089581E090E0E0910D0196
:10392000F0910E01E80FF91F108201968830910581
:10393000A9F708959091BB01982B9093BB0108952E
:1039400080959091BB0198239093BB0108951092AC
:10395000BB0108959091BA01982B9093BA010895F4
:1039600080959091BA0198239093BA01089510928E
:10397000BA0108958093B10108951092B10108959C
:1039800040910D0150910E0120E030E080E0FA01FD
:10399000E20FF31F918191118F5F2F5F3F4F27300F
:1039A0003105A9F70895E0910D01F0910E01809184
:1039B000BB018083E0910D01F0910E018081909117
:1039C000BA01892B80839091B101992361F0E09134
:1039D0000D01F0910E018081892B80830E94C01C13
:1039E00081111092B10180910D0190910E010C9402
:1039F000341180E090E0089508950E94910690E4CB
:103A0000980F903218F40E94A30608958D3B60F43D
:103A1000883A10F5853AB8F4843090F4813009F092
:103A20005DC021E030E0A1C0803E08F457C0883E70
:103A300038F0803F08F452C0282F30E0306595C040
:103A4000282F30E092C0853A09F44BC0863A09F03D
:103A50004BC022E830E489C0883A09F448C0893A6A
:103A600009F448C08A3A09F448C08B3A09F448C0BE
:103A70008C3A09F448C08B3B09F448C08C3B09F4EC
:103A800048C08D3A09F448C0803B09F448C08E3ADA
:103A900009F448C08F3A09F448C0813B09F448C092
:103AA000823B09F448C0833B09F448C0843B09F4D5
:103AB00048C0853B09F448C0863B09F448C0873BB1
:103AC00009F448C0883B09F448C0893B09F448C060
:103AD0008A3B09F048C02AE236E447C020E030E0E3
:103AE00044C021E830E441C023E830E43EC022EE87
:103AF00034E43BC029EE34E438C02AEE34E435C067
:103B000025EB34E432C026EB34E42FC023EB34E45D
:103B10002CC024EB34E429C027EB34E426C02CEC81
:103B200034E423C02DEC34E420C023E835E41DC088
:103B30002AE835E41AC022E935E417C024E935E45F
:103B400014C021E236E411C023E236E40EC024E2C0
:103B500036E40BC025E236E408C026E236E405C0B0
:103B600027E236E402C020E034E4C90108959093CE
:103B700035018093340108958295982F9C7C969509
:103B80009695837344E0849F90011124922B892F92
:103B90008A7A86959575990F892B08958091D10120
:103BA000843009F11092BD0120E488E190E00FB665
:103BB000F894A895809360000FBE2093600083B7AF
:103BC000817F846083BF83B7816083BF7894889549
:103BD00083B78E7F83BF88E10FB6F894809360002F
:103BE000109260000FBE089508950895CF930E942B
:103BF000F41D0E94CA070E94F51DC0E08C2F0E9490
:103C00004A08811105C0CF5FC031C1F780E001C013
:103C100081E0CF9108950C94F1161F920F920FB688
:103C20000F9211248F939F93AF93BF938091BD0107
:103C3000811113C08091BE019091BF01A091C0017C
:103C4000B091C1014196A11DB11D8093BE01909319
:103C5000BF01A093C001B093C101BF91AF919F91EB
:103C60008F910F900FBE0F901F90189582E084BD2A
:103C700093E095BD9AEF97BD80936E0008952FB79E
:103C8000F8948091BE019091BF01A091C001B091C4
:103C9000C1012FBF0895CF92DF92EF92FF920F9351
:103CA0001F932FB7F8944091BE015091BF016091CE
:103CB000C0017091C1012FBF6A017B01EE24FF2476
:103CC0008C0120E030E0C016D106E206F30610F4C5
:103CD00041505109481B590BCA011F910F91FF9088
:103CE000EF90DF90CF9008951F920F920FB60F9232
:103CF00011248F939F93AF93BF938091BE019091B6
:103D0000BF01A091C001B091C1010196A11DB11DDB
:103D10008093BE019093BF01A093C001B093C101F5
:103D2000BF91AF919F918F910F900FBE0F901F90F9
:103D300018950E944C0EF8942FEF87EA91E62150D7
:103D400080409040E1F700C0000087E090EBDC018C
:103D50008093DA019093DB01A093DC01B093DD0145
:103D60002CE088E190E00FB6F894A895809360006D
:103D70000FBE20936000FFCF8091C40180FF0BC075
:103D80006091120185E0689FB001112475956795D7
:103D9000759567952AC081FF09C06091120185E081
:103DA000689FB0011124759567951FC082FF07C0F9
:103DB0006091120185E0689FB001112416C0409106
:103DC000C5014423C9F060911101461788F720917D
:103DD000120185E0289F90011124429FC001439F5A
:103DE000900D112470E00E945C266038710540F44B
:103DF0006115710539F002C065E070E0862F089505
:103E00008FE7089581E008958091C40180FF08C084
:103E10006091100170E0759567957595679521C063
:103E200081FF06C06091100170E07595679519C01B
:103E300082FF04C06091100170E010C08091C50144
:103E40008823C1F060910F018617A0F790911001AF
:103E5000989FC001112470E00E945C2660387105B3
:103E600028F46115710521F0862F08958FE70895D4
:103E700081E0089561E070E0F4CF803F21F40E947A
:103E8000BC1E819504C0813F29F40E94BC1E809312
:103E9000C8010895823F21F40E94BC1E819504C090
:103EA000833F29F40E94BC1E8093C7010895893F77
:103EB00019F40E94041F05C08A3F31F40E94041FB8
:103EC00081958093C90108958B3F21F40E94041FBE
:103ED000819504C08C3F29F40E94041F8093CA017D
:103EE0000895843F21F48091C601816017C0853F09
:103EF00021F48091C601826011C0863F21F4809137
:103F0000C60184600BC0873F21F48091C6018860A0
:103F100005C0883F31F48091C60180618093C6015D
:103F200008958D3F21F48091C40181600BC08E3FC4
:103F300021F48091C401826005C08F3F29F48091F3
:103F4000C40184608093C4010895803F39F4809156
:103F5000C80187FF6CC01092C80169C0813F29F475
:103F60008091C8011816BCF362C09091C701823FCE
:103F700029F497FF5CC01092C70159C0833F19F420
:103F80001916CCF354C0893F41F48091C901181629
:103F90000CF04DC01092C9014AC08A3F29F48091AB
:103FA000C90187FF44C0F6CF8B3F39F48091CA0125
:103FB00087FF3DC01092CA013AC08C3F29F480911E
:103FC000CA011816BCF333C0843F21F48091C601A6
:103FD0008E7F17C0853F21F48091C6018D7F11C06F
:103FE000863F21F48091C6018B7F0BC0873F21F46F
:103FF0008091C601877F05C0883F31F48091C6015A
:104000008F7E8093C60113C08D3F21F48091C4013F
:104010008E7F0BC08E3F21F48091C4018D7F05C03F
:104020008F3F29F48091C4018B7F8093C4018091DC
:10403000C70181110EC08091C80181110AC0809111
:10404000C901811106C08091CA01811102C010927C
:10405000C50108958091BC0183FF7EC081E695E093
:104060000E94EF058091C6011F928F938CE595E029
:104070009F938F930E9488068AE595E00E94EF0542
:104080002091C701822F992787FD90959F932F93A9
:1040900087E595E09F938F930E94880685E595E0DC
:1040A0000E94EF052091C801822F992787FD9095E6
:1040B0009F932F9382E595E09F938F930E948806AC
:1040C00080E595E00E94EF052091C901822F992794
:1040D00087FD90959F932F938DE495E09F938F9309
:1040E0000E9488068BE495E00E94EF052091CA01AA
:1040F000822F992787FD90959F932F9388E495E0D1
:104100009F938F930E94880685E495E00E94EF05B7
:104110008091C5011F928F9382E495E09F938F93C6
:104120000E94880680E495E00E94EF058091C4011A
:104130001F928F938DE395E09F938F930E94880643
:104140008AE395E00E94EF058DB79EB74C960FB6B7
:10415000F8949EBF0FBE8DBF86EC91E00E9479114E
:104160000E943F1E9093C3018093C20108951F9344
:10417000CF93DF938091C2019091C3010E944B1EA7
:104180004091C501442321F02091130130E006C085
:10419000209114015AE0259F900111248217930762
:1041A00008F482C08091C7011091C801D091C90163
:1041B000C091CA01811107C0111105C0D11103C0FE
:1041C000CC2309F471C04F3F19F04F5F4093C501F4
:1041D000181624F40E94BC1E8093C7018091C70169
:1041E00087FF05C00E94BC1E81958093C7011116F0
:1041F00024F40E94BC1E8093C8018091C80187FFEF
:1042000005C00E94BC1E81958093C8016091C701C2
:10421000662339F11091C801112319F1772767FD41
:104220007095872F972F0E94612523E333E343E3A3
:104230005FE30E94C5250E942E256093C701612F70
:10424000772767FD7095872F972F0E94612523E3BD
:1042500033E343E35FE30E94C5250E942E2560936C
:10426000C8011D1624F40E94041F8093C901809187
:10427000C90187FF05C00E94041F81958093C90171
:104280001C1624F40E94041F8093CA018091CA0165
:1042900087FF05C00E94041F81958093CA01DF91AA
:1042A000CF911F910C942A20DF91CF911F910895F7
:1042B000E6ECF1E085E0DF011D928A95E9F71092C6
:1042C000C5011092C401089584E897E00E94EF05AB
:1042D0001F9281E08F931F9285E08F9386E397E092
:1042E0009F938F930E9488060F900F900F900F90CE
:1042F0000F900F9008958330E9F128F4813061F038
:10430000823009F10895853009F462C008F449C08B
:10431000863009F474C0089520911401862F90E02E
:10432000820F911D8F3F910520F4620F609314015D
:1043300003C08FEF80931401809114011F928F931B
:104340008FE696E072C020911301862F90E0820FD5
:10435000911D8F3F910520F4620F6093130103C0FC
:104360008FEF80931301809113011F928F938DE53E
:1043700096E05BC020911201862F90E0820F911D84
:104380008F3F910520F4620F6093120103C08FEFFD
:1043900080931201809112011F928F938AE496E01C
:1043A00044C020911101862F90E0820F911D8F3F14
:1043B000910520F4620F6093110103C08FEF809389
:1043C0001101809111011F928F9385E396E02DC01A
:1043D00020911001862F90E0820F911D8F3F910553
:1043E00020F4620F6093100103C08FEF80931001DF
:1043F000809110011F928F938CE196E016C020915E
:104400000F01862F90E0820F911D8F3F910520F4C0
:10441000620F60930F0103C08FEF80930F018091B3
:104420000F011F928F9381E096E09F938F930E94DC
:1044300088060F900F900F900F900895833081F1B0
:1044400028F4813059F08230D1F00895853009F494
:1044500049C0B8F1863009F456C00895809114011E
:10446000681720F4861B8093140102C01092140177
:10447000809114011F928F9382EF95E054C0809138
:104480001301681720F4861B8093130102C0109259
:104490001301809113011F928F9380EE95E043C02A
:1044A00080911201681720F4861B8093120102C0CC
:1044B00010921201809112011F928F938DEC95E062
:1044C00032C080911101681720F4861B809311017E
:1044D00002C010921101809111011F928F9388EBFD
:1044E00095E021C080911001681720F4861B80930D
:1044F000100102C010921001809110011F928F9341
:104500008FE995E010C080910F01681720F4861B99
:1045100080930F0102C010920F0180910F011F9232
:104520008F9384E895E09F938F930E9488060F9065
:104530000F900F900F900895CF93C82F1F928F93D5
:1045400029E838E03F932F930E94880661E070E0ED
:1045500080E090E004C0660F771F881F991FCA95FE
:10456000D2F70E94E91A0F900F900F900F90CF9101
:104570000C94F116CF93873288F58E3108F00EC176
:104580008E3009F486C0D8F4873009F460C08B30CF
:1045900009F44FC0863009F005C18091BC01817FCC
:1045A0008E7F8093BC018EE898E00E94EF0585E342
:1045B0009BE00E94EF0581E08093CC0146C08631EC
:1045C00009F4ADC020F4803109F478C0EBC0893122
:1045D00009F48EC08B3109F449C0E4C0883349F135
:1045E00050F4893209F4D8C0853309F4D5C0873234
:1045F00009F0D8C0D1C0833409F4CEC028F48A337E
:1046000008F4D0C08953CBC0883409F0CBC00E94D5
:10461000F11684E29BE00E94EF052FEF83ED90E31B
:10462000215080409040E1F700C000000E94991E98
:104630000CC085EB98E03FC08BE09BE00E94EF054B
:104640008091BC0181608093BC01C1E0B0C08091C9
:10465000BC01C82FC17080FFEFCF88E19BE00E94B2
:10466000EF058091BC01817F8E7F3CC08091BC01B1
:1046700081FBCC27C0F991E0C927C0FB81F9809369
:10468000BC01CC2319F08EEF9AE027C080EF9AE0AE
:1046900012C08091BC0182FBCC27C0F991E0C927F0
:1046A000C0FB82F98093BC01CC2319F081EE9AE023
:1046B00014C081ED9AE00E94EF05C7CF8091BC0144
:1046C00083FBCC27C0F991E0C927C0FB83F9809315
:1046D000BC01CC2351F085EC9AE00E94EF0580915B
:1046E000BC0181608093BC0162C088EB9AE0E3CF9B
:1046F00089EA9AE00E94EF0586E89AE00E94EF05B9
:1047000081E49AE00E94EF0584E19AE00E94EF05BF
:104710008EED99E00E94EF0580EB99E0CCCF82EA24
:1047200099E00E94EF050E9428111F928F9388E85C
:1047300099E09F938F930E94880680910C011F92AD
:104740008F9381E799E09F938F930E9488068091D1
:1047500059011F928F938EE599E09F938F930E944A
:1047600088068091BE019091BF01A091C001B091D7
:10477000C101BF93AF939F938F938AE499E09F9376
:104780008F930E9488068DB79EB742960FB6F89415
:104790009EBF0FBE8DBF59CF80E001C08D510E94DA
:1047A0009C2253CF88E499E00E94EF05C0E08C2F53
:1047B000CF91089580E0089580E00895CF93C82FA9
:1047C0008091CC01813069F020F0823009F446C03C
:1047D0003DC167E08FE00E943608882309F43CC1A0
:1047E00006C067E08FE00E943608882349F08C2FCE
:1047F0000E94DA2381112FC08C2F0E94BA222CC074
:104800008C2F0E94DC23811126C0C431E1F070F4AA
:10481000CB3081F0C031D1F40E94642181E898E06E
:104820000E94EF0582E08093CC0115C0C93259F097
:10483000C83361F48EE898E00E94EF0585E898E0BF
:104840000E94EF0508C01092CC0104C18FE798E0E8
:104850000E94EF05FFC081E08170FEC0C43228F5E0
:10486000CE3108F0C1C0CB30A1F1D0F4C73009F08F
:10487000D3C08EE18093140182E3809313018AE018
:104880008093120184E18093110188E080931001EC
:1048900088E280930F0185E297E00E94EF05BFC098
:1048A000C33149F1C431C1F0B7C0CB3409F4A9C058
:1048B00028F4C93289F0C83361F0AEC0C13509F4BB
:1048C0009EC0C23509F499C0CE3409F0A5C06AE093
:1048D0009EC00E946421A3C08091CB01882319F05F
:1048E0001092CB019CC082E397E00E94EF0581E02B
:1048F0008093CC01B1C08CE097E00E94EF058AEF75
:1049000096E00E94EF05809114011F928F9387EF2C
:1049100096E09F938F930E94880685EF96E00E9411
:10492000EF0583EE96E00E94EF05809113011F9240
:104930008F9380EE96E09F938F930E9488068EED72
:1049400096E00E94EF058FEC96E00E94EF058091C3
:1049500012011F928F938CEC96E09F938F930E948D
:1049600088068AEC96E00E94EF0589EB96E00E94AB
:10497000EF05809111011F928F9386EB96E09F9334
:104980008F930E94880684EB96E00E94EF058FE9E2
:1049900096E00E94EF05809110011F928F938CE9A1
:1049A00096E09F938F930E9488068AE996E00E9482
:1049B000EF0583E896E00E94EF0580910F011F92BA
:1049C0008F9380E896E09F938F930E9488068EE7EE
:1049D00096E00E94EF058DB79EB748960FB6F89403
:1049E0009EBF0FBE8DBF1BC0CE51EC2FF0E0E75D28
:1049F000FE4F80818093CB0112C061E003C061E073
:104A000006C06AE08091CB010E947B2108C08091A2
:104A1000CB010E941E2203C083E297E013C0809165
:104A2000CB01882369F01F928F938DE197E09F93CC
:104A30008F930E9488060F900F900F900F9004C0E4
:104A40008AE197E00E94EF0581E006C01092CC0158
:104A500080E002C080E000CFCF91089504D0689438
:104A6000B1118DC0089570D088F09F5790F0B92F84
:104A70009927B751A0F0D1F0660F771F881F991FB3
:104A80001AF0BA95C9F712C0B13081F077D0B1E011
:104A9000089574C0672F782F8827B85F39F0B93F21
:104AA000CCF3869577956795B395D9F73EF49095B5
:104AB0008095709561957F4F8F4F9F4F0895E89433
:104AC00009C097FB3EF490958095709561957F4F56
:104AD0008F4F9F4F9923A9F0F92F96E9BB27939504
:104AE000F695879577956795B795F111F8CFFAF414
:104AF000BB0F11F460FF1BC06F5F7F4F8F4F9F4F45
:104B000016C0882311F096E911C0772321F09EE8A2
:104B1000872F762F05C0662371F096E8862F70E008
:104B200060E02AF09A95660F771F881FDAF7880FE2
:104B30009695879597F9089557FD9058440F551FFE
:104B400059F05F3F71F04795880F97FB991F61F00F
:104B50009F3F79F087950895121613061406551F86
:104B6000F2CF4695F1DF08C0161617061806991FF2
:104B7000F1CF86957105610508940895E894BB27E7
:104B800066277727CB0197F908950BD078C069D0B5
:104B900028F06ED018F0952309F05AC05FC0112498
:104BA000EECFCADFA0F3959FD1F3950F50E0551FCC
:104BB000629FF001729FBB27F00DB11D639FAA2772
:104BC000F00DB11DAA1F649F6627B00DA11D661FC1
:104BD000829F2227B00DA11D621F739FB00DA11DE2
:104BE000621F839FA00D611D221F749F3327A00D9C
:104BF000611D231F849F600D211D822F762F6A2F38
:104C000011249F5750408AF0E1F088234AF0EE0FBC
:104C1000FF1FBB1F661F771F881F91505040A9F7C9
:104C20009E3F510570F014C0AACF5F3FECF3983E51
:104C3000DCF3869577956795B795F795E7959F5F30
:104C4000C1F7FE2B880F911D9695879597F90895CA
:104C500097F99F6780E870E060E008959FEF80EC2F
:104C6000089500240A9416161706180609060895D2
:104C700000240A9412161306140605060895092E38
:104C80000394000C11F4882352F0BB0F40F4BF2BA7
:104C900011F460FF04C06F5F7F4F8F4F9F4F0895E7
:104CA000991B79E004C0991F961708F0961B881F7E
:104CB0007A95C9F78095089597FB072E16F400940E
:104CC00007D077FD09D00E94762607FC05D03EF478
:104CD000909581959F4F0895709561957F4F0895A8
:104CE000EE0FFF1F0590F491E02D0994AA1BBB1B4A
:104CF00051E107C0AA1FBB1FA617B70710F0A61BDC
:104D0000B70B881F991F5A95A9F780959095BC01FC
:084D1000CD010895F894FFCFD6
:104D1800FFFFAB099C0A790A450A120A01B2012869
:104D280008140A321E3F4D3620C7047A044404246E
:104D380004B003C903E203FB0301020304050607E9
:044D48000809000056
:00000001FF
